:020000040000FA
:100000000EEF00F0FFFFFFFFFFEFCAF0FFFFFFFF63
:10001000FFFFFFFFFFFFFFFF08EFCCF020EE0CF02B
:10002000F1ECFCF0E86602D016EF00F086ECF4F09C
:1000300001C0DDFF00C0DDFF20EC00F023EF00F089
:10004000000023EF00F00000FED7010FE84E120081
:10005000D8900036FBD7026A090E036E00360150B5
:10006000034E05D00236025CD8B0026EF7D70050BE
:100070001200000E01AE03D0011E012A010E00AED7
:1000800003D0001E002A030A046E026A090E036EE2
:100090000036034E06D002360150025CD8B0026E24
:1000A000F7D704B2026C005004B0E86C1200010FE4
:1000B000E84E1200D89000360136FAD7046A056A75
:1000C000110E066E003601360250064E120004363E
:1000D0000536045C076E03500558F4E3056E07C04F
:1000E00004F0F0D7000E03AE05D0031E021E024A34
:1000F000032A010E01AE05D0011E001E004A012A8E
:10010000030A086E046A056A110E066E003601368F
:10011000064E0CD0043605360250045C076E0350C0
:100120000558F4E3056E07C004F0F0D708A004D02A
:10013000001E011E004A012A08A21200041E051E0C
:10014000044A052A1200010FE84E1200D89000362A
:10015000013602360336F8D7010FE84E1200D89068
:100160000332023201320032F8D7010FE84E12009A
:10017000D89003BED8800332023201320032F6D763
:10018000086A096A0A6A0B6AD89007320632053291
:10019000043206E2075006100510041009E11200AF
:1001A000005008260150092202500A2203500B2257
:1001B000D8900036013602360336E6D7086A096A57
:1001C0000A6A0B6A210E0C6E0036013602360336BF
:1001D00004500C4E1200083609360A360B36085CFD
:1001E0000550095806500A5807500B58D8A0ECD7AC
:1001F0000450085A0550095A06500A5A07500B5A1B
:10020000E3D7000E07AE0CD0071E061E051E041E07
:10021000042A05E1052A03E1062A01E1072A010E65
:1002200003AE0CD0031E021E011E001E002A05E1B3
:10023000012A03E1022A01E1032A030AE96E086A9E
:10024000096A0A6A0B6A210E0C6E00360136023604
:10025000033604500C4E15D0083609360A360B36D4
:10026000085C0550095806500A5807500B58EDE332
:100270000450085A0550095A06500A5A07500B5A9A
:10028000E4D7E9A00BD0001E011E021E031E002AA7
:1002900005E1012A03E1022A01E1032AE9A2120091
:1002A000081E091E0A1E0B1E082A05E1092A03E181
:1002B0000A2A01E10B2A120002AE06D000C0E9FFB3
:1002C00001C0EAFFEF50120000C0F6FF01C0F7FFC7
:1002D00002C0F8FF0800F550120000C0F6FF01C090
:1002E000F7FF02C0F8FF0900F5CF04F00900F5CFD1
:1002F00005F0120002AE0BD000C0E9FF01C0EAFF1A
:10030000EECF04F0EECF05F0EFCF06F0120000C004
:10031000F6FF01C0F7FF02C0F8FF0900F5CF04F0B7
:100320000900F5CF05F00900F5CF06F0120000C076
:10033000F6FF01C0F7FF02C0F8FF0900F5CF04F097
:100340000900F5CF05F00900F5CF06F00900F5CF5B
:1003500007F0120002AE06D000C0E9FF01C0EAFFBC
:10036000EF6E120002AC120000C0F6FF01C0F7FFF2
:1003700002C0F8FFF56E0C00120002AE09D000C0FA
:10038000E9FF01C0EAFF04C0EEFF05C0EFFF120065
:1003900002AC120000C0F6FF01C0F7FF02C0F8FF78
:1003A00004C0F5FF0D0005C0F5FF0D00120000C0F0
:1003B000F6FF01C0F7FF02C0F8FF04C0F5FF0D0013
:1003C00005C0F5FF0D0006C0F5FF0D00120002ACE0
:1003D000120000C0F6FF01C0F7FF02C0F8FF04C022
:1003E000F5FF0D0005C0F5FF0D0006C0F5FF0D007F
:1003F00007C0F5FF0D00120006AE09D004C0E9FFEA
:1004000005C0EAFFEECF00F0EFCF01F0120004C00C
:10041000F6FF05C0F7FF06C0F8FF0900F5CF00F0B2
:100420000900F5CF01F0120006AE0BD004C0E9FFC1
:1004300005C0EAFFEECF00F0EECF01F0EFCF02F003
:10044000120004C0F6FF05C0F7FF06C0F8FF090060
:10045000F5CF00F00900F5CF01F00900F5CF02F06B
:10046000120006AE0DD004C0E9FF05C0EAFFEECFD2
:1004700000F0EECF01F0EECF02F0EFCF03F012006C
:1004800004C0F6FF05C0F7FF06C0F8FF0900F5CF6E
:1004900000F00900F5CF01F00900F5CF02F00900E6
:1004A000F5CF03F0120004C0F6FF05C0F7FF06C049
:1004B000F8FFF56E0C00120006AE09D004C0E9FF8B
:1004C00005C0EAFF00C0EEFF01C0EFFF120006AC5E
:1004D000120004C0F6FF05C0F7FF06C0F8FF00C019
:1004E000F5FF0D0001C0F5FF0D00120006AE0BD0A8
:1004F00004C0E9FF05C0EAFF00C0EEFF01C0EEFF47
:1005000002C0EFFF120006AC120004C0F6FF05C0E7
:10051000F7FF06C0F8FF00C0F5FF0D0001C0F5FFB2
:100520000D0002C0F5FF0D00120006AE0DD004C094
:10053000E9FF05C0EAFF00C0EEFF01C0EEFF02C008
:10054000EEFF03C0EFFF120006AC120004C0F6FF7E
:1005500005C0F7FF06C0F8FF00C0F5FF0D0001C0A1
:10056000F5FF0D0002C0F5FF0D0003C0F5FF0D0003
:10057000120041707220323420323030370025733F
:10058000307825303458002500454B4C204C696E9E
:10059000653A00AD5314E5ABAC20AD20202020B966
:1005A00020AE20AFB0B1B2B32020202020202020E8
:1005B00020B420B5B6B7B820BABB4A20BC2020BDB5
:1005C00020BE20202020BF20204969C0202020C13B
:1005D00020C2206A5373C3418042818245833384A1
:1005E000854B864D484F875043548889588A8B8C59
:1005F0008D8E8F9091929361949596976598999A24
:100600009B6B9C6D9D6F9E70639F79A078A1A2A348
:10061000A4A5A6A7A8A9AA205F2B302E2C2D3F2782
:1006200022403A3B2F282931414243324445463348
:10063000474849344A4B4C354D4E4F365051525332
:1006400037545556385758595A3900205F2B302E99
:100650002C2D3F2722403A3B2F28293161626332FB
:1006600064656633676869346A6B6C356D6E6F36C6
:100670007071727337747576387778797A390000CB
:10068000041115191D21252A2E33205F2B302E2C05
:100690002D3F2722403A3B2F282931C0C1C2C33207
:1006A000C4C5C6C733C8C9CACB34CCCDCECF35D06C
:1006B000D1D2D336D4D5D6D737D8D9DADB38DCDDAA
:1006C000DEDF3900205F2B302E2C2D3F2722403AD1
:1006D0003B2F282931E0E1E2E332E4E5E6E733E8C5
:1006E000E9EAEB34ECEDEEEF35F0F1F2F336F4F548
:1006F000F6F737F8F9FAFB38FCFDFEFF3900000485
:1007000011161B20252A2F34390028280B320B3ACA
:100710000C083B1033060404B0046009C0128025A5
:100720004038004B8070009600E1CF673367443358
:100730002119100F0800FF0700ED0700E207000075
:100740000000000000000000000000000003E8FFBF
:10075000FFFFFFFFFFFC1800000000000027100053
:100760000000000001869600000000000186A00045
:10077000000000000F42400000000005F5E0FF000F
:100780000000003B9AC9F6000000003B9AC9FFFF39
:10079000FFFFFFC465360100000002540BE3F600C2
:1007A0000000174876E7F6000000E8D4A50FF646EB
:1007B0004D205343414E3A2020202530356C5800BF
:1007C0004552523D256420414444523D3078253005
:1007D000356C58002573253032640025732530347C
:1007E00064002020202044696769747300204379E5
:1007F00072696C6C6963204C657474657273002057
:10080000204C6174696E204C6574746572730020AD
:10081000204153434949204D6F646500566F6C7405
:100820006167650025642E25303264005465737459
:1008300020525332203A204641494C00546573748B
:1008400020525332203A204F4B005465737420528B
:100850005331203A204641494C005465737420526C
:100860005331203A204F4B00303132333435363754
:10087000003031323334353637383941424344451C
:100880004600434F444520504147452043503132B4
:1008900035310000454B4C3A200025733078253027
:1008A000345800504C553A20004445503A200050EE
:1008B00052494E5445522054455354003078253007
:1008C0003258004B42443A200000001F003B005ABF
:1008D0000078009700B500D400F300110130014EFC
:1008E00001010000000A00000064000000E80300AD
:1008F0000010270000A086010040420F008096985B
:100900000000E1F50500CA9A3B2A20204C4F5720F1
:10091000504F5745522020202A002A205345525636
:10092000494345204D4F4445202A00202D00010217
:100930000020002078200025732031202D202575EF
:10094000005A2000253032643A30300000202D005B
:100950004D6963726F20312E302000000000005A74
:10096000543230303720342E312042554C000101B2
:10097000070700002A20202045435220323030371C
:100980002020202A00C1FAEBE3E0F0E8FF00CBE5ED
:10099000E2E000DB1400D71400CC1400BF1400B256
:1009A0001400A414009E14009414008A14007F14F0
:1009B000007414006C14005F14005414004A1400F6
:1009C0003E14003114002514001914000E14000206
:1009D0001400F51300ED1300E513000604010202F4
:1009E00002020101010301020101010201010201F0
:1009F00002090900000000000000000000000002E1
:100A000000000000000000020000000100000000E3
:100A100000000001000000000000000000000000D5
:100A200000000000000000000000000000000000C6
:100A300000000000000000000000000000000000B6
:100A400000000000000000000000000100000001A4
:100A5000000000000000000000000002000000098B
:100A600000000009000000630000006300000001B6
:100A700000000003000000080000009000000003D8
:100A80000000006300000001000000010000000100
:100A90000000000A00000001000000010000000B3F
:100AA0000000000100000063000000FFC99A3BFF46
:100AB000C99A3B0000000000000000020000000393
:100AC000000000010000000A000000010000000119
:100AD00000000001000000030000005000000002C0
:100AE0000000001C000000000000000000000000EA
:100AF00000000005000000000000000000000000F1
:100B0000000000000000000100000001000000FFE4
:100B1000C99A3B7E15007515006C1500E8030000AE
:100B2000D0070000B80B0000010000000200000028
:100B300003000000040000000500000006000000A3
:100B400007000000080000006215005815004E154F
:100B5000004415003A15003015002615001C15003C
:100B60001915001615001315001015000D15000AB3
:100B70001500071500041500FE1400F81400F21407
:100B800000EC1400E61400E014003013002A1300F7
:100B90002113001813000F1300061300FD1200F4B8
:100BA0001200EB1200E21200000000000000000042
:100BB0000000000000004E200000000000004E2059
:100BC0000000000000001B58FFFFFFFFFFFFFC18A4
:100BD000FFFFFFFFFFFFFC18FFFFFFFFFFFFFC18F9
:100BE000FFFFFFFFFFFFFC180101000000000000F5
:100BF00000000000000000000000D51200CD12002F
:100C0000CB1200CB1200CB1200CB1200CB1200CBC8
:100C10001200CB1200C21200CB1200CB1200CB127A
:100C200000CB1200CB1200CB1200CB1200CB120073
:100C3000CAC0D1C8C5D05F00C4C5CFC0D0D25F0084
:100C40000101C0D0D2C8CAD3CB00C0D0D25F0062ED
:100C50000000000000000000010000000000000093
:100C60000003E800000000000007A60000000000EC
:100C700000066B00000000000003E8000000000018
:100C80000003E800000000000003E800000000008E
:100C90000003E800000000000003E800000000007E
:100CA0000003E8BB1200B61200B21200AC1200A39F
:100CB00012009D12009712009112008B12007B12FD
:100CC00000D81300CF1300C11300B01300A8130005
:100CD000A2130092130085130078130069130060BB
:100CE00013005F1300521300451300361300B217B0
:100CF00000A617009A17008C1700801700741700C1
:100D00006817005A17004E170041170033170024C8
:100D100017001517006D18005D18004E18005F13BE
:100D2000004118003018002018001518000618009F
:100D3000F91700EA1700DB1700CA1700C0170054A4
:100D400016004716005F1300361600271600C2DA99
:100D5000C2C5C4C5D2C520CACECBC8D72E005F132A
:100D6000001A16000F1600021600F91500F0150003
:100D7000EE1500EC1500DF1500D41500C61500B700
:100D80001500A71500981500871500051700F41623
:100D900000EA1600E11600D71600CE1600C31600B2
:100DA000B616002A20202020204F46462020202052
:100DB00020202A00CFD0C5CADAD1CDC0D200202051
:100DC000CFEEF2E2FAF0E4E5F2E5203F00CDD3CB3E
:100DD000C8D0C0CD2052414D00C8EDE8F6E8E0EBA8
:100DE000E8E7E0F6E8FF2E2E2E0020CDF3EBE8F04A
:100DF000E0EDE520D1F3ECE800CCEEEBFF2C20E8B1
:100E0000E7F7E0EAE0E9F2E52100CDF3EBE8F0E016
:100E1000ED20466C617368002A2A2E2A2A25002AB2
:100E20002A2E2A2A002D2D2D00CDDFCCC020CFD098
:100E3000CEC4C0C6C1C80043533D00CFCED2C22EDF
:100E40002000D1CFC0C420CDC0CFD0C5C6C5CDC82D
:100E5000C500C7C0CFC8D1C0CD202100D4C8D1CAD9
:100E6000C0CBC8C7C0D6C8DF00CFC0D0CECBC03A39
:100E700000CFD0CEC3D0C0CC00D2C5D1D22031203B
:100E80002D203700D2C5D1D200D4CF3A20CFDACB33
:100E9000CDC0002020CDDFCCC020D5C0D0D2C8DF4F
:100EA00000CFD0C5C3D02E20CFD0C8CDD2C5D00062
:100EB000C8CCC500424300CFCB2E00CFC0D0C0CCA1
:100EC0002E00D6C5CDC000C4C5CFC0D0D200D1CC75
:100ED000DFCDC020C4C0D2C02FD7C0D100D1CCDF5D
:100EE000CDC020C4C5D12E20D2CED7CAC000D1CC0F
:100EF000DFCDC020C4C0CD2ED1D2C0C2CAC800C769
:100F0000C0C22ECD2E00D4C8D1CA2ECD2E00C5C849
:100F1000CA3A00C7C4C4D13A00C5C8CA00C7C4C4CD
:100F2000D100D1D3CCC000CC2ED1D3CCC000CACEFE
:100F3000D0C5CAD6C8DF20CC2ED1D3CCC000CACEF3
:100F4000D0C5CAD6C8C80020CFCECAD3CFCAC80021
:100F5000CFCBC0D2C5CDCE00D0C5D1D2CE00CFCB65
:100F6000C0D9C0CDC520312D25752054544C00CAA0
:100F7000CECB00C4C8D02ECFD0CEC42E00D1D3CC7F
:100F8000C000CDD3CBC5C2C820D0C5C3C8D1D2D034
:100F9000C800CEC1D9CE00C220CDC0CBC8D7CDCEDF
:100FA000D1D200CFD0CEC4C0C6C1C800CFCECBD323
:100FB000D7C5CDC800C4CDC5C2C5CD20CEC1CED009
:100FC000CED200C4CDC5C2C5CD20D4C8CDC0CDD1F0
:100FD000CEC200CED2D7C5D220CFD0CEC4C0C6C1DB
:100FE000C800CED2D7C5D220CFCE20CAC0D1C8C566
:100FF000D0C800CED2D7C5D220CFCE20C0D0D2C844
:10100000CAD3CBC800CED2D7C5D220CFCE20C4C53C
:10101000CFC0D0D22E00CFCED7C0D1CEC220CED21C
:10102000D7C5D200C1CBCECA20D4CF00CED2D7C52F
:10103000D220D4CF00CED2D7C5D220D4C8D1CAC0F6
:10104000CBCDC020CFC0CCC5D200C2DAC2C5C4C58A
:10105000CDC020C220C5CAD1CFCBCEC0D2C0D6C849
:10106000DF00D120D320CC20C02020CEC1CED0CED6
:10107000D22C20C4C4D100CED23A00C4CE3A00CE85
:10108000D220C4C0D2C03A00C4CE20C4C0D2C03A1C
:1010900000CED220C1CBCECA3A00C4CE20C1CBCE26
:1010A000CA3A00CDC5D2CE00D1D3CCC020CDC5D256
:1010B000CE00D1D3CCC020C4C4D100D1D3CCC02069
:1010C000CEC1CED0CED200CEC1D920CEC1CED0CED0
:1010D000D200D1C2CEC1CEC4CDC820C1CBCECAC0F1
:1010E00000C4C4D100CDD3CBC8D0C0CD2052414D17
:1010F00000CDD3CBC8D0C0CD2052414D00CDD3CBF5
:10110000C8D0C0CD4500D4CF3A20256420C1CBCE75
:10111000CAC000D4CF3A20256420C1CBCECAC0209B
:10112000CED1D2C0C2C0D200AA16009E1600CACE2E
:10113000D0C5CAD6C8DF00C0CDD3CBC8D0C0CDC5BE
:1011400000C0CDD3CBC8D0C0CD000000000000004F
:10115000000000000000000000009516008C160042
:101160008316007A1600C4C0D2C020C4CEC3CEC23B
:10117000CED000202020CED1D2C0C2C0D220256443
:1011800020C4CDC820C4CE20C8C7D2C8D7C0CDC5C2
:101190000020202020CED1D2C0C2C020256420C48F
:1011A000C5CD20C4CE20C8C7D2C8D7C0CDC5002069
:1011B000202020CDC020C4CEC3CEC2CED0C020C7F8
:1011C000C020D1C5D0C2C8C72121210000CED0C8BF
:1011D000C3C8CDC0CB00D4C0CAD2D3D0C0204E6FBC
:1011E0002E2000CFD0CEC4C0C2C0D73A00CFCECBC5
:1011F000D3D7C0D2C5CB3A00CAD3CFD3C2C0D73A17
:1012000000C0C4D0C5D13A00C5CACB3A00D0C0C7CF
:10121000CFC5D7C0D2CAC020C5CACB00CAD0C0C9AA
:1012200020D0C0C7CFC5D7C0D2CAC020C5CACB0046
:10123000C8C7D2D0C8D2C020C5CACB00C5CACB202F
:10124000CED220CDCECCC5D03A2000C4CE3A20009C
:10125000CDCECCC5D020CFCED1CB2E20C4CECAD3BC
:10126000CCC5CDD23A007716007416007116006E08
:1012700016006816006216005F1600D1C8D1D22E83
:1012800020CFC0D0C0CCC5D2D0C800CFCB2E203903
:1012900000CFCB2E203800CFCB2E203700CFCB2E47
:1012A000203600CAD02ECAC0D0D2C000D120D7C5A7
:1012B000CA0055534400C5C2D0CE00C220C1D0CE12
:1012C000C900474F4F442042594500200057454C24
:1012D000434F4D45005A4954204543522032303047
:1012E0003700CEC1CED0CED22AC700CEC1CED0CE0E
:1012F000D22AC600CEC1CED0CED22AC500CEC1CE13
:10130000D0CED22AC400CEC1CED0CED22AC300CEF7
:10131000C1CED0CED22AC200CEC1CED0CED22AC12A
:1013200000CEC1CED0CED22AC000C4C4D12AC700BC
:10133000C4C4D12AC600C3D02E20CACECBC8D7C5BC
:10134000D1D2C2CE00C3D02E20D1D2CEC9CDCED1E3
:10135000D200C3D02E20CECFC5D0C0D6C8DF00006B
:10136000C4D3C1CBC8CAC0D200CDC5D4C8D1CAC0AD
:10137000CBC5CD20C1CECD00D4C8D1CAC0CBC5CD40
:1013800020C1CECD00D1CBD3C6C5C1C5CD20C1CEE5
:10139000CD00C2C8C4CEC2C520CFCBC0D9C0CDC835
:1013A000DF00CACBC8D8C500CAC0D1C8C5D0C800E4
:1013B000CACED0C5CAD6C8C820CDC020D6C5CDC8D3
:1013C00000C4C0CDDAD7CDC820C3D0D3CFC800C0A9
:1013D000D0D2C8CAD3CBC800C4C5CFC0D0D2C0CC2D
:1013E000C5CDD2C800D4C0CAD22EC4CE00D4C0CA83
:1013F000D22ECED200C0C2D2CECC2E20C8C7CACBED
:101400002E00CCCED2CED020D2C5CCCF2E00CDC097
:10141000D1D2D02E20C4CD2E00CFDACBC5CD20CF57
:10142000C5D7C0D200C7C0C4DACB2E20D1D3CCC020
:1014300000CACECDD2D02E20CFC5D7C0D200D1D3B6
:10144000CCC020C220CFCB2E3200CFC5D7C0D220F7
:10145000C4C4D100C1C0D0CACEC42043524300D2BC
:10146000C5C3CB2E20C1C0D0CACEC400C2C8C420C0
:10147000C5CACB00CFC5D7C0D220CBCEC3CE005279
:101480005320D1CACED0CED1D200C2C8C420C2C54A
:10149000C7CDC000C5CAC020D0C5C6C8CC00C5CA0B
:1014A000C0202300CFD0C0C7CDC820D0C5C4CEC275
:1014B000C500D0C5C4CEC2C520D0C5CACB2E00D071
:1014C000C5C4CEC2C520CACBC8D8C500C4C5D12E9C
:1014D00020D2CED7CAC000D7C0D100C4C0D2C0006D
:1014E000C4C4D12AC500C4C4D12AC400C4C4D12AEA
:1014F000C300C4C4D12AC200C4C4D12AC100C4C418
:10150000D12AC0002AC7002AC6002AC5002AC40062
:101510002AC3002AC2002AC1002AC000C42EC3D098
:10152000D3CFC020C700C42EC3D0D3CFC020C600A5
:10153000C42EC3D0D3CFC020C500C42EC3D0D3CFB8
:10154000C020C400C42EC3D0D3CFC020C300C42E3B
:10155000C3D0D3CFC020C200C42EC3D0D3CFC020AD
:10156000C100C42EC3D0D3CFC020C000CFC0D0CEC6
:10157000CBC0205A00CFC0D0CECBC0205800CFC0A7
:10158000D0CECBC0205000D4CF3A20C3D02ECACE6C
:10159000CDD2D02ECACEC400D4CF3A20C3D02E2074
:1015A000D4CED0CCC0D200D4CF3A20CFD0C0C7C583
:1015B000CD20C1CBCECA00D4CF3A20C3D02E20D765
:1015C000C5D2C5CDC500D4CF3A20C3D02E20C7C0C8
:1015D000CFC8D100D4CF3A20CBC8CFD1C2C000D41D
:1015E000CF3A20C8C7CFD0C0C2CDC0005A005800E3
:1015F0005A2DCED2D7C5D2C800582DCED2D7C5D2FB
:10160000C800415441524B20283132303029004328
:101610004153202839363030290042494D434F206C
:1016200028393630302900C5CACB20CFD0C5CFDA13
:10163000CBC2C0CDC500CFD0C5CF2ECDCECC2ED401
:10164000C0CAD2D3D0C000CFD0C5CF2E20D1CCC5F8
:10165000D2CAC800C7C0C1D02E20CCC0D1C0002083
:1016600044002053556E640020534F76720020468C
:1016700000205300204300204D00CED2D1D2DACF3B
:10168000CAC800CDC0C4C1C0C2CAC800CED2D1D25F
:10169000DACFCAC000CDC0C4C1C0C2CAC000D1CB5D
:1016A0002EC8C7C2C5C4C5CDC800D1CB2EC2DAC2B0
:1016B000C5C4C5CDC800C4D0CEC1CDC820D7C8D1FF
:1016C000CBC000D6C5CBC820D7C8D1CBC000CAD0AC
:1016D0002EC1CBCECA3A00CDC0D72EC1CBCECA3A8E
:1016E00000CAD02EC4C0D2C03A00CDC0D72EC4C0CC
:1016F000D2C03A00D4CF3A20C3D02ECDC5C7C0CF78
:101700002ECEC1CB00D4CF3A20C3D02E20CEC1CE16
:10171000D0CED2C800C7C0C1D02E20C4C0D2C02FE6
:10172000D7C0D100C7C0C1D02E20CECFC5D0C0D623
:10173000C8DF00CDC5C2C0CB2E20CFC0D0CECBC01D
:1017400000C3D02E20CACED0C5CAD6C8DF00C3D0B1
:101750002E20CFD0CED6C5CDD200C3D02E20CFC024
:10176000D0C0CCC5D2DAD000C4D3C1CBC8D0C0CD94
:1017700020CF2E00CDC5C2C0CB2E20D1D3CCC000EF
:10178000CDD3CBC5C2C020D6C5CDC000C7C0C1D047
:101790002E20C0D0D2C8CAD3CB00C7C0C1D02E2003
:1017A000CED2C4C5CB00C3D02E20C0D0D2C8CAD39D
:1017B000CB00C3D02E20C4C0CD2EC3D0D3CFC00009
:1017C000D4CF3A20CFDACBCDC000C8C7CCC8CDC06B
:1017D000CBC820323420D7C0D1C000CFD0C5CF2E47
:1017E00020CACED0C5CAD6C8C800CFD0C5CF2E20FB
:1017F000CFCBC0D9C0CDC8DF00CFD0C5CF2E20CE33
:10180000D2C4C5CBC800CFD0C5CF2E20C0D0D2C83F
:10181000CAD3CBC800CFD0C5CF2E20D1C5C9D400E4
:10182000CFD0C5CF2ED2C5CA2ED1CCC5D2CAC0000A
:10183000C2CBC5C7D2C520C2205A2DD0C5C6C8CC80
:1018400000C3D02E20C4C0D2C02FD7C0D100C7C083
:10185000C1D02E20CECFC5D02E20504300C3D02ED5
:1018600020C4C0CDCDC820C2C5C7CDC000C3D02EB6
:1018700020C1CBCECA001404280A000000000000DA
:101880000000000000000000000000000000000058
:101890000000000000000000000000000000000048
:1018A00000000C001E001E001E001E001E001E0078
:1018B0001E000C000C000C000C000C000C000000C2
:1018C00000000C001E001E000C0000000000318013
:1018D0007BC07BC03180630000000000000000007E
:1018E00000000000000000000000000000000000F8
:1018F000000033003300330033007F807F803300EB
:1019000033003300330033003300330033007F8073
:101910007F8033003300330033000C000C001E00C6
:101920003F006D806D806C003C001C000C000E00C0
:101930000F000D800D806D806D803F001E000C003B
:101940000C00000039806D806D803B0003000300B7
:10195000060006000C000C000C00180018003000F7
:10196000300037006D806D806700000000001C00B3
:101970003E00630063006300630036001C00180033
:1019800038006C006D8067806780630063003F8073
:101990001D80000000000C001E001E000C0018003E
:1019A0000000000000000000000000000000000037
:1019B00000000000000000000000030006000C0012
:1019C0000C00180030003000300070007000700013
:1019D000700030003000300018000C000C000600D1
:1019E000030060003000180018000C00060006001C
:1019F00006000700070007000700060006000600B3
:101A00000C0018001800300060000000000000000A
:101A100000000000618033001E007F807F801E0078
:101A200033006180000000000000000000000000A2
:101A30000000000000000000000000000C000C008E
:101A40000C000C007F807F800C000C000C000C0050
:101A50000000000000000000000000000000000086
:101A60000000000000000000000000000000000076
:101A7000000000000C001E001E000E0006000C00FE
:101A8000180000000000000000000000000000003E
:101A9000000000007F007F007F00000000000000C9
:101AA0000000000000000000000000000000000036
:101AB0000000000000000000000000000000000026
:101AC000000000000000000000000C001E001E00CE
:101AD0000C000000018001800300030003000600E9
:101AE000060006000C000C000C001800180018007E
:101AF000300030003000600060001E003F00618058
:101B000061806180638067806580658069806980AD
:101B100069806980798071806180618061803F0027
:101B20001E000C000C001C001C003C003C000C00C3
:101B30000C000C000C000C000C000C000C000C0045
:101B40000C000C000C000C000C001E003F0061801B
:101B500061806180018001800180030006000C002B
:101B600018003000600060006000600063007F00CB
:101B70007F001E003F006180618001800180018044
:101B800003000E000E00030001800180018001802F
:101B90000180618061803F001E0003000300070098
:101BA00007000F000F000F001B001B003300330065
:101BB000630063007F807F80030003000300030055
:101BC00003007F807F8060006000600060007E0016
:101BD0007E000300030001800180018001800180FC
:101BE0000180030003007E007C0007000F00180046
:101BF000300060006000600060007E007F00618057
:101C000061806180618061806180618061803F006E
:101C10001E007F807F8001800180018001800300A1
:101C20000300030006000600060006000C000C007E
:101C30000C000C000C000C000C001E003F0061802A
:101C4000618061806180618061803F003F006180D0
:101C500061806180618061806180618061803F001E
:101C60001E001E003F006180618061806180618094
:101C7000618061803F801F80018001800180018040
:101C80000180030006003C003C0000000000000052
:101C90000C001E001E000C000000000000000000F0
:101CA000000000000C001E001E000C0000000000E0
:101CB00000000000000000000C001E001E000C00D0
:101CC0000000000000000000000000000C001E00EA
:101CD0001E000C0018000000000000000000008042
:101CE0000180030006000C00180030006000600056
:101CF000300018000C000600030001800080000086
:101D000000000000000000000000000000007F0054
:101D10007F007F000000000000007F007F007F0048
:101D20000000000000000000000000000000400073
:101D30006000300018000C000600030001800180E4
:101D4000030006000C001800300060004000000096
:101D500000001E003F006180618061800180018081
:101D60000180030006000C000C000C000C000000B9
:101D700000000C001E001E000C001E003F006180D1
:101D8000618061806180618067806F806D806D801F
:101D90006D806D806F8067006000600060003F8034
:101DA0001F800C000C001E003300330033006180E4
:101DB00061806180618061807F807F8061806180DF
:101DC000618061806180618061807E007F006180D0
:101DD0006180618061806180618061807F007F00BF
:101DE00061806180618061806180618061807F004D
:101DF0007E001E003F0061806180618060006000A5
:101E000060006000600060006000600060006000D2
:101E10006180618061803F001E007C007E00630065
:101E200061806180618061806180618061806180AA
:101E300061806180618061806180618063007E007B
:101E40007C007F807F806000600060006000600038
:101E5000600060007F007F00600060006000600044
:101E60006000600060007F807F807F807F806000F6
:101E70006000600060006000600060007F007F0024
:101E80006000600060006000600060006000600052
:101E900060001E003F0061806180618061806000A1
:101EA0006000600060006000678067806180618022
:101EB0006180618061803F001F006180618061807E
:101EC0006180618061806180618061807F807F80CE
:101ED00061806180618061806180618061806180FA
:101EE00061803F003F000C000C000C000C000C0057
:101EF0000C000C000C000C000C000C000C000C0082
:101F00000C000C000C003F003F00018001800180AC
:101F100001800180018001800180018001800180B9
:101F200001800180618061806180618061803F000B
:101F30001E00618061806180618061806300630058
:101F4000660066007C007C0066006600630063003B
:101F500061806180618061806180600060006000FC
:101F60006000600060006000600060006000600071
:101F700060006000600060006000600060007F80C2
:101F80007F806180618061806180738073807380F5
:101F900073806D806D806D80618061806180618003
:101FA0006180618061806180618061806180618029
:101FB00061806180618061807180718079807980C9
:101FC0006D806D80678067806380638061806180E1
:101FD00061801E003F00618061806180618061805E
:101FE00061806180618061806180618061806180E9
:101FF0006180618061803F001E007E007F00618003
:102000006180618061806180618061807F007E008D
:1020100060006000600060006000600060006000C0
:1020200060001E003F00618061806180618061808E
:102030006180618061806180618061806180618098
:10204000618067803F801F8001807E007F0061800B
:102050006180618061806180618061807F007F003C
:102060006180618061806180618061806180618068
:1020700061801E003F006180618060006000600040
:10208000300018000C000600030001800180018070
:102090000180618061803F001E007F807F800C0096
:1020A0000C000C000C000C000C000C000C000C00D0
:1020B0000C000C000C000C000C000C000C000C00C0
:1020C0000C006180618061806180618061806180DD
:1020D00061806180618061806180618061806180F8
:1020E0006180618061803F001E006180618061804D
:1020F00061806180618061806180618061806180D8
:10210000618061806180330033001E001E000C007E
:102110000C0061806180618061806180618061808C
:1021200061806180618061806D806D806D806D8077
:102130007F803F0033003300330061806180618025
:1021400061806180330033001E001E000C000C0013
:102150001E001E0033003300618061806180618059
:102160006180618061806180618061806180618067
:102170006180330033001E001E000C000C000C00B8
:102180000C000C000C000C000C007F807F80018094
:102190000180018001800180030006000C0018000E
:1021A00030006000600060006000600060007F80C0
:1021B0007F803F003F0030003000300030003000B2
:1021C000300030003000300030003000300030008F
:1021D0003000300030003F003F0000006000600031
:1021E0003000300030001800180018000C000C00FF
:1021F0000C00060006000600030003000300018037
:1022000001803F003F0003000300030003000300C0
:1022100003000300030003000300030003000300A6
:102220000300030003003F003F0006000F00198079
:1022300030C00000000000000000000000000000AE
:10224000000000000000000000000000000000008E
:10225000000000000000000000000000000000007E
:10226000000000000000000000000000000000006E
:102270000000000000007F807F80300018000C000C
:102280000600030000000000000000000000000045
:10229000000000000000000000000000000000003E
:1022A000000000000000000000000000000000002E
:1022B0001E001F000180018001801F803F8061801F
:1022C0006180618061803F801F800000000000000D
:1022D000000060006000600060007E007F006180A0
:1022E00061806180618061806180618061807F0048
:1022F0007E00000000000000000000000000000060
:102300001E003F006180618060006000600060002E
:102310006000618061803F001E000000000000003E
:1023200001800180018001801F803F806180618089
:1023300061806180618061806180618061803F80B7
:102340001F800000000000000000000000000000EE
:102350001E003F006180618061807F807F8060001F
:102360006000600060003F001F00000000000000EF
:1023700007000F00180018001800180018007F0050
:102380007F00180018001800180018001800180026
:102390001800000000000000000000000000000025
:1023A0001F803F80618061806180618061807F806B
:1023B0003F80018001807F007E000000000000005F
:1023C000600060006000600060007E007F0061804F
:1023D00061806180618061806180618061806180F5
:1023E000618000000C001E001E000C0000003C007C
:1023F0003C000C000C000C000C000C000C000C004D
:102400000C000C000C003F003F0000000C001E0000
:102410001E000C00000000003C003C000C000C0002
:102420000C000C000C000C000C000C000C003C001C
:102430003800000000000000600060006000618063
:1024400061806180630066006C00780078006C0039
:102450006600630061806180618000000000000010
:102460003C003C000C000C000C000C000C000C00AC
:102470000C000C000C000C000C000C000C003F00C9
:102480003F0000000000000000000000000000000D
:102490007E007F006D806D806D806D806D806D80B1
:1024A0006D806D806D8061806180000000000000A3
:1024B00000000000000000007E007F00618061805D
:1024C0006180618061806180618061806180618004
:1024D000618000000000000000000000000000001B
:1024E0001E003F0061806180618061806180618049
:1024F0006180618061803F001E00000000000000DC
:1025000000000000000000007E007F00618061800C
:102510006180618061807F007E00600060006000FB
:10252000600000000000000000000000000000004B
:102530001F803F80618061806180618061806180F7
:102540003F801F80018001800180000000000000AA
:102550000000000000000000630067007C007800BD
:10256000700060006000600060006000600060005B
:1025700060000000000000000000000000000000FB
:102580001F803F806000600060003E001F000180EF
:102590000180018001807F007E00000000000000BB
:1025A00018001800180018007F007F00180018009D
:1025B00018001800180018001800180018000F80E4
:1025C0000780000000000000000000000000000084
:1025D00061806180618061806180618061806180F3
:1025E0006180618061803F801F80000000000000EA
:1025F0000000000000000000618061806180618057
:10260000618061806180330033001E001E000C0079
:102610000C000000000000000000000000000000AE
:10262000618061806180618061806D806D806D807E
:102630007F803F00330033003300000000000000C3
:102640000000000000006180618061806180318055
:102650001E000C001E00330061806180618061807B
:102660006180000000000000000000000000000089
:102670006180618061806180618061803F801F80B6
:102680000180018001801F001E000000000000008A
:1026900000000000000000007F807F80018001803A
:1026A000030006000C0018003000600060007F800E
:1026B0007F800300030006000600060006000C00F1
:1026C0000C000C00380038000C000C000C00060058
:1026D000060006000600030003000C000C000C00BE
:1026E0000C000C000C000C000C000C000C000C008A
:1026F0000C000C000C000C000C000C000C000C007A
:102700000C003000300018001800180018000C00F1
:102710000C000C00070007000C000C000C00180057
:102720001800180018003000300000000000000001
:1027300008401C4036C036C0238021000000000045
:102740000000000000000000000000000000000089
:1027500000007F807F807F807F807F807F807F8080
:102760007F807F807F807F807F807F807F807F8071
:102770007F807F807F807F807F807F007F00600000
:1027800060006000600060007E007F00618061800A
:1027900061806180618061806180618061807F0093
:1027A0007E007F807F8060006000600060006000CD
:1027B0006000600060006000600060006000600019
:1027C000600060006000600060000300030007001C
:1027D00007000F000F001B001B0033003300330005
:1027E000330033003300330033007F807F8061800B
:1027F00061806D806D806D806D806D806D806D807D
:102800006D803F001E001E003F006D806D806D805A
:102810006D806D806D806D806D8061806180618074
:102820006180618061806180638063806780678090
:102830006D806D8079807980718061806180618038
:1028400061806D806D806180618061806180618068
:1028500063806380678067806D806D807980798018
:10286000718061806180618061800F801F80318014
:1028700031803180318031803180318031803180D0
:102880003180318031803180318031803180618090
:1028900061807F807F8061806180618061806180F4
:1028A0006180618061806180618061806180618020
:1028B0006180618061806180618061806180618010
:1028C00061806180618061806180618061803F8022
:1028D0001F800180018001800180018001803F0014
:1028E0003E000C000C001E003F006D806D806D806E
:1028F0006D806D806D806D806D806D806D806D8070
:102900006D803F001E000C000C006300630063003C
:10291000630063006300630063006300630063009F
:10292000630063006300630063007F807F80018039
:1029300001806180618061806180618061806180EF
:102940006180618061803F801F8001800180018003
:10295000018001800180018001806D806D806D802B
:102960006D806D806D806D806D806D806D806D80FF
:102970006D806D806D806D806D806D806D807F80DD
:102980007F806D806D806D806D806D806D806D80CD
:102990006D806D806D806D806D806D806D806D80CF
:1029A0006D806D807FC07FC000C078007800180007
:1029B000180018001800180018001E001F001980C9
:1029C00019801980198019801980198019801F00B9
:1029D0001E006180618061806180618061806180B2
:1029E0006180718079806D806D806D806D806D807B
:1029F0006D806D806D807980718030003000300096
:102A0000300030003000300030003C003E00330029
:102A100033003300330033003300330033003E0013
:102A20003C001E003F006180618061800180018068
:102A3000018001801F801F80018001800180018052
:102A40006180618061803F001E0067006F806D8043
:102A50006D806D806D806D806D806D807D807D80EE
:102A60006D806D806D806D806D806D806D806F80FC
:102A700067001F803F80618061806180618061802C
:102A800061803F801F800D800D800D80198019802E
:102A90003180318031806180618000000000000061
:102AA0001F003F00600060007E007F006180618049
:102AB00061806180618061806180618061803F00B0
:102AC0001E000000000000000000000000000000E8
:102AD0007E007F006180618061807F007F00618077
:102AE0006180618061807F007E0000000000000046
:102AF00000000000000000007F807F806000600018
:102B000060006000600060006000600060006000C5
:102B10006000000000000000000000000000000055
:102B200007000F001B003300330033003300330075
:102B300033007F807F8061806180000000000000A2
:102B400000000000000000006D806D806D806D80D1
:102B50003F001E001E003F006D806D806D806D8007
:102B60006D80000000000000000000000000000078
:102B70001E003F0061800180018007000700018086
:102B80000180618061803F001E00000000000000A5
:102B900000000000000000006180618061806380AF
:102BA0006380678067806D806D80798079807180B7
:102BB00061800000000000000000000000000C0028
:102BC0006D806180618063806380678067806D80D5
:102BD0006D80798079807180618000000000000044
:102BE00000000000000000000F801F803180318055
:102BF000318031803180318031803180318061801D
:102C000061800000000000000000000000000000E3
:102C1000618061806180618061807F807F80618070
:102C2000618061806180618061800000000000003F
:102C300000000000000000007F807F8061806180D4
:102C4000618061806180618061806180618061807C
:102C50006180000000000000000000000000000093
:102C60007F807F800C000C000C000C000C000C001E
:102C70000C000C000C000C000C0000000000000018
:102C8000000000000C000C001E003F006D806D80F5
:102C90006D806D806D806D806D803F001E000C002A
:102CA0000C00000000000000000000000000000018
:102CB00063006300630063006300630063006300FC
:102CC00063007F807F8001800180000000000000A1
:102CD0000000000000000000618061806180618070
:102CE000618061803F801F800180018001800180C0
:102CF0000180000000000000000000000000000053
:102D00006D806D806D806D806D806D806D806D805B
:102D10006D806D806D807F807F80000000000000EE
:102D200000000000000000006D806D806D806D80EF
:102D30006D806D806D806D806D807FC07FC000C0B4
:102D400000C00000000000000000000000000000C3
:102D5000780078001800180018001F001F801980E4
:102D60001980198019801F801F00000000000000DA
:102D700000000000000000006180618061806180CF
:102D8000618079807D806D806D806D806D807D80BB
:102D9000798000000000000000000000000000003A
:102DA000300030003000300030003E003F00330083
:102DB0003300330033003F003E00000000000000FD
:102DC00000000000000000007E007F000180018004
:102DD00001801F801F8001800180018001807F00B1
:102DE0007E00000000000000000000000000000065
:102DF00067006F806D806D806D807D807D806D80CF
:102E00006D806D806D806F806700000000000000A5
:102E100000000000000000001F803F806180618092
:102E2000618061807F803F800D800D8019803180BE
:102E300031807F807F8030003000300030003000F3
:102E40003000300030003E003F0031803180318062
:102E500031803180030006000C000C000C000000E3
:102E60007F807F8060006000600060006000600024
:102E70006000600060006000600060006000600052
:102E8000600000000000000000000C000C000000CA
:102E90007F807F80600060006000600060006000F4
:102EA000600060006000600060000E001E003600E0
:102EB0003600360036003600360036003600370061
:102EC0003780368036803680368036803680678020
:102ED00067006C006C006C006C006C006C006C0097
:102EE0006C007E007F006D806D806D806D806D80D8
:102EF0006D806D806D806F0067000C000C0061803C
:102F00006180618061806300630066006C0078000E
:102F100078006C00660063006300618061806180FE
:102F200061807F807F8030003000300030003000D2
:102F30003000300030003E003F0031803180318071
:102F40003180318031803180318061806180618069
:102F50006180618061806180618061806180618069
:102F6000618061806180618061807F807F800C00F2
:102F70000C00000000000000000000000000000045
:102F8000300030007C007C0030003E003F0031808B
:102F90003180318001800300060000000000000045
:102FA00000000000000000000E001E003600360089
:102FB00037003780368036803680368036806780AE
:102FC000670000000000000000000000000000009A
:102FD0006C006C006C006C007E007F006D806D806A
:102FE0006D806D806D806F006E000000000000003D
:102FF0000C000C000000618061806180630066004D
:103000006C00780078006C0066006300618061806D
:1030100061800000000000000000000000000000CF
:103020003000300030007C007C0030003E003F006B
:10303000318031803180318031800000000000001B
:1030400000000000000000006180618061806180FC
:10305000618061806180618061807F807F800C0001
:103060000C001E003F006180618060006000600015
:103070007F807F80600060007F807F8060006000D4
:103080006000618061803F001E00618033001E008F
:1030900061806180618061806180618061803F804A
:1030A0001F800180018001800180030006001C0058
:1030B000180000000000618033001E000C000000BA
:1030C0006180618061806180618061803F801F805C
:1030D0000180018001801F001E00018001807F802F
:1030E0007F80600060006000600060006000600041
:1030F00060006000600060006000600060006000D0
:10310000600033003300000000007F807F8060009B
:103110006000600060007E007E0060006000600073
:103120006000600060007F807F801E003F00618043
:103130006180600060006000600060007F807F80D0
:1031400060006000600060006000618061803F009E
:103150001E0033003300000000007F807F800C00E1
:103160000C000C000C000C000C000C000C000C00FF
:103170000C000C000C007F807F800000000000002D
:1031800000000000018001807F807F80600060007F
:10319000600060006000600060006000600060002F
:1031A0006000000000003300330000000000000059
:1031B0001E003F006180618061807F807F806000B1
:1031C0006000600060003F001F0000000000000081
:1031D0000000000000001E003F00618060006000F1
:1031E00060007F807F8060006000600061803F80C1
:1031F0001F0000000000330033000000000000004A
:103200007F807F800C000C000C000C000C000C0078
:103210000C000C000C007F807F800000000000008C
:10322000000000000000000000000000000000009E
:10323000000000000000000000000000000000008E
:10324000000000000000000000000000000000007E
:10325000000000000000000000000000000000006E
:10326000000000000000000000000000000000005E
:10327000000000000000000000000000000000004E
:10328000000000000000000000000000000000003E
:10329000000000000000000000000000000000002E
:1032A000000000000000000000000000000000001E
:1032B000000000000000000000000000000000000E
:1032C00000000000000000000000000000000000FE
:1032D00000000000000000000000000000000000EE
:1032E0000000003003AC037004B804F8043405682F
:1032F000059805C805F0051C06400668068C06B052
:1033000006D006F40614073807580778079C07C04C
:1033100007E40708082C0858088008B008E4081CCF
:10332000096009F005D4064008C8084009AC091036
:103330000A680ABC0A0C0B580BA00BE80B2C0C6C8F
:103340000CAC0CEC0C2C0D680DA80DE80D280E68CB
:103350000EA80EEC0E340F800FD00F28108410F042
:10336000106C1100000000000000001B2C2A28290E
:103370000000001C2D2B3437000000083132353896
:10338000000000302E333639000000004142434433
:103390000000000D20242327000000000000000092
:1033A00000000010100804020101060808100808B7
:1033B00006040404000404040C02020102020C00CE
:1033C0000009160000001F1F1F1F1F1F1F1F1010C6
:1033D0001E11111E1F101010101010040A0A0A0AE4
:1033E0001F1115150E040E151511111315191111B4
:1033F00015111315191111040A11111111111F11B1
:1034000011111111111111110F01110E040E1515C9
:10341000150E0412121212121F011111110F0101C7
:10342000011515151515151F15151515151F01185D
:1034300008080E09090E111111191515191010108F
:103440001E11111E0E11010F01110E1215151D1561
:1034500015120F11110F050911000E101E11111E6A
:1034600000001E111E111E00000F080808080000B1
:10347000040A0A1F11000015150E151500001E0183
:103480000E011E0000111315191100001513151956
:10349000110000040A111111000011111F11110077
:1034A000001F1111111100001F0404040400000486
:1034B0000E150E0400001212121F01000011110F50
:1034C00001010000151515151F00001515151F0128
:1034D000000018080E090E0000111119151900003E
:1034E00010101E111E00001E010F011E00001215FB
:1034F0001D151200000E110F09111F08080E0909F1
:103500000A04001F101010100004000F080808041F
:103510000A0A0A0B0B1B1212121E13131315121494
:10352000181412111E08080E0909091111111111A0
:103530001F04001C101E11110600000E0A0B0B13B5
:10354000000012121F1313001512141C1211000098
:103550001C080E090900001111111F040F101F1083
:103560001F100F0A15110F01010E050209090701AD
:1035700006011F10101010100A1F101E10101F0E31
:1035800011101E10110E0A1F040404041F00010F65
:10359000080808080A0E11111F100E00000F101E57
:1035A000100F0A000E0404040E1010101E11111E3C
:1035B000000040C08030313233343536373839413D
:1035C000424344454600286E756C6C20706F696EEE
:1035D0007465722900303132333435363738396109
:1035E000626364656600464C4F4154533F207772D6
:1035F0006F6E6720666F726D617474657220696E9C
:103600007374616C6C656421003F3F3F00002020B3
:103610002020202020202028282828282020202082
:103620002020202020202020202020202020881042
:1036300010101010101010101010101010100404A2
:1036400004040404040404041010101010101041A9
:10365000414141414101010101010101010101011A
:1036600001010101010101010110101010101042AF
:1036700042424242420202020202020202020202EA
:1036800002020202020202020210101010200301C4
:103690008B6B8C6B0301D46B0301D36B0301CE6B7B
:1036A0000301CA6B0301CB6B0301CC6B0301CD6B30
:1036B0000301460EDC6F0301A56BA66B0301C26B11
:1036C00003018F6B906B0301D06B0301D16B03017E
:1036D000A369A4690301D76B0301D86B0301D96BFC
:1036E000230E006E050E016E440E026E000EB2EC4B
:1036F00001F00001030E526F536B7C0E4F6F030EEF
:10370000506F800E516F09EFAEF00301CB510301F2
:10371000CA1902E0010E01D0000E1200CBC300F066
:10372000026A016A050E0024F66E370E0120F76E5C
:10373000440E0220F86E0800F5CF3FF00301CB2BBA
:1037400000013F511200CBC300F0026A016A050E6E
:103750000024F66E370E0120F76E440E0220F86E3C
:103760000800F55012000301000EC26F9D98000082
:10377000ACA2FED700003FC0ADFF0000ACA2FED758
:10378000120011D0066A056A050E0424006E390E77
:103790000520016E440E0620026E00014851B2EC75
:1037A00001F00301D32B85EC1BF0000AD8B4AEEF77
:1037B0001CF08EEC1BF00001486F0301D453000194
:1037C000D8B484EF1CF0030E4819D3C304F0DAE137
:1037D000066A056A050E0424006E390E0520016E86
:1037E000440E0620026E000EB2EC01F00301D46B11
:1037F0000F0EF66E060EF76E440EF86E9DEC01F09D
:10380000045005100610071005E10301C153D8B498
:10381000AEEF1CF0E1EC1DF0000A06E00301C1531D
:1038200003E172EC1EF0B3D00301070ED35D08E391
:10383000C9EC1CF0000A04E1EFEC1CF0000A03E004
:1038400072EC1EF0A4D0080EF66E390EF76E440E20
:10385000F86E0800F5CF48F00001200E485D12E335
:10386000300E485D0FE2B50EF66E050EF76E440E93
:10387000F86E0800F55203E10301B3BF18D07FECE6
:103880001EF085D0800E485D12E3A00E485D0FE269
:10389000540EF66E1D0EF76E440EF86E0800F552CB
:1038A00003E00301C15303E07FEC1EF070D0060E6D
:1038B000F66E390EF76E440EF86E0800F5500301EF
:1038C000D71908E1000148510301D91903E110ECAF
:1038D0001EF05DD0440EF86E0800F5CFD7F3D7C3C5
:1038E000D8F30001A10E481905E00301FC0E7C1776
:1038F000800E7E1703010A0E796F390E7A6F440E1F
:103900007B6F0001485144D0020E481910E10301B9
:10391000010ED46F050E006E390E016E440E026E5C
:10392000020EB2EC01F00301010ED36F3CD7200E62
:10393000485DD8A0D3EF1BF003010E0ECE5D0DE263
:10394000CEC300F0016A420E0024E96E030E01208E
:10395000EA6E48C0EEFFCE2B26D7CE6B03018B510B
:103960008C1115E10301D46B0301C26B0301CE532B
:103970000EE0CEC300F0016A420E0024E96E030E91
:103980000120EA6EEE6ACEC348F0CE6BBAD7000EC5
:103990001200090EF66E390EF76E440EF86E08002E
:1039A000D3C302F0F550E00F0301DA6F006E036A33
:1039B000F90E0226FF0E032202E10050021802E176
:1039C000000E01D0010E1200080E006E380E016EBE
:1039D000440E026E0301CC511C0FB2EF01F0000146
:1039E000416B010E3F6F11D03FC004F0066A056ABB
:1039F000050E0424006E390E0520016E440E0620CB
:103A0000026E000EB2EC01F03F2B3FC000F0D3C3BA
:103A100002F0016A036AFE0E0226FF0E0322025024
:103A2000005C0350800A017E01581BE23FC000F099
:103A3000026A016A050E0024F66E390E0120F76E47
:103A4000440E0220F86E0800F5CF40F040514127A7
:103A5000090E4019C9E03F53D7E0200E405DD4E283
:103A600063D0D3C300F0016AFF0E00060122000EEE
:103A700001BEFF0E026E050E0024F66E390E012007
:103A8000F76E440E0220F86E0800F5500F0BD3C3FA
:103A900000F0046E016AFE0E0026FF0E0122000EE9
:103AA00001BEFF0E026E050E0024F66E390E0120D7
:103AB000F76E440E0220F86E0800F538F00B04266D
:103AC00004C040F0D3C304F0056AFE0E0426FF0EC6
:103AD0000522000E05BEFF0E066E050E0424006EC4
:103AE000390E0520016E440E0620026E000EB2EC67
:103AF00001F0D3C304F0056AFF0E04060522000E90
:103B000005BEFF0E066E050E0424006E390E05205C
:103B1000016E440E0620026E000EB2EC01F041511F
:103B2000401902E1000E01D0010E12000001416BAC
:103B3000406B31D040C000F0026A016A050E0024DB
:103B4000F66E380E0120F76E440E0220F86E080063
:103B5000F55210E140C004F0066A056A050E04241F
:103B6000006E380E0520016E440E0620026E090E0E
:103B7000B2EC01F040C000F0026A016A050E0024B8
:103B8000F66E380E0120F76E440E0220F86E080023
:103B9000F5504127402B0301CC510001405DCAE3A1
:103BA00041C000F000380F0B300F00013F6F06ECF2
:103BB00027F0000141510F0B300F00013F6F06EF5E
:103BC00027F0070EF66E390EF76E440EF86E0800F9
:103BD000F550E00F00013F6F12E0006E0B0EF66E25
:103BE000060EF76E440EF86E9DEC01F0075206E1EA
:103BF000065204E1055202E10050041802E1000EF1
:103C000001D0010E120083EC1EF0080EF66E390E84
:103C1000F76E440EF86E0800F5CFD9F310EF1EF0E2
:103C20000001476B0301CD6B0301CB6B0301CA6B32
:103C30000001020E3F6FB3EC1BF0000000009D88F6
:103C4000000000009DB8FED70001466B02D0000EB8
:103C5000466F85EC1BF0000A1FE0A3EC1BF000018F
:103C6000456F060E451907E0150E451904E0160EBE
:103C7000451901E022D08EEC1BF00001456F060EC5
:103C8000451904E10301D82B000E18D0160E451972
:103C9000DEE0150E45190BE000010A0E436F446B80
:103CA00060ECFBF00001462BFA0E465DD2E3472B99
:103CB000050E475DD8A012EF1EF0010E12000301A1
:103CC000FC0E7C17800E7E17080EF66E390EF76E0E
:103CD000440EF86E0800F5CFD9F30001060E3F6FD1
:103CE000B3EF1BF00301D96B0301D76B0001150E75
:103CF0003F6FB3EF1BF003017C8172EF1EF00301F5
:103D00007C8372EF1EF0E4EC1CF003017C95030150
:103D1000010EF41902E103017C8503017D91CA0EB5
:103D2000F66E360EF76E440EF86E0800F55201E09E
:103D30007D817D930301BC5302E003017D83030178
:103D40007D954D0EF66E340EF76E440EF86E08003B
:103D5000F55201E07D857D9D230EF66E050EF76E12
:103D6000440EF86E0800060EF55C01E37D8D7C5173
:103D7000800900013F6F06EC27F07C0E006E030EF9
:103D8000016E800E026E002A000E012202225CECFF
:103D900001F0800900013F6F06EC27F07C0E006EF9
:103DA000030E016E800E026E020E0026000E01222E
:103DB00002225CEC01F0800900013F6F06EC27F065
:103DC00096EC1DF0CCC304F0066A056A050E0424C7
:103DD000006E380E0520016E440E0620026E030EA2
:103DE000B2EC01F003017D9B12000001080E4C5D56
:103DF000D8B03DEF1FF079C348F07AC349F07BC3D8
:103E00004AF05BECF6F000C069F301C06AF302C04F
:103E10006BF303C06CF34CC000F0016A030E002684
:103E2000D8B0012A000E01BEFF0E036E026E020E14
:103E3000A3EC00F0530E0024F66E060E0120F76E80
:103E4000440E0220F86E9DEC01F003016C5107183E
:103E500008E16B51061805E16A51051802E1695144
:103E600004180FE0230E006E050E016E440E026E64
:103E70005CEC01F0010FAAEC01F07BEC1EF0010EEE
:103E8000120079C342F07AC343F07BC344F076EC6E
:103E9000FCF0002800014B6F03017927000E7A2304
:103EA0007B2300014B510301DA5D02E2DA6B04D09F
:103EB00000014B510301DA5F000EE2D7B40E006E31
:103EC000050E016E440E026E010EB2EC01F0DDC370
:103ED000D6F30001B96BBD51200AD8B4F9EF1FF039
:103EE000020AD8B4FCEF1FF0760AD8B4F6EF1FF040
:103EF000D40AD8B4FFEF1FF0010AD8B44EEF20F077
:103F0000030AD8B410EF20F0010AD8B482EF20F0F1
:103F1000070AD8B44EEF20F0010AD8B410EF20F011
:103F2000030AD8B443EF21F0010AD8B443EF21F0DB
:103F30000F0AD8B443EF21F0010AD8B44CEF22F0B5
:103F4000030AD8B4C4EF22F0010AD8B4EAEF22F091
:103F5000070AD8B450EF23F0010AD8B45AEF23F07F
:103F6000030AD8B443EF25F0010AD8B449EF25F08D
:103F70001F0AD8B42BEF24F0010AD8B454EF24F070
:103F8000030AD8B485EF24F0010AD8B48CEF24F0EA
:103F90000A0AD8B4CCEF24F0030AD8B403EF25F012
:103FA000010AD8B417EF25F0070AD8B42DEF25F091
:103FB0003E0A14E07FEC1EF0B40E006E050E016E9A
:103FC000440E026E000EB2EC01F00001B951120075
:103FD0007BEC1EF0F1D77FEC1EF0EED743EC26F021
:103FE000000AEAE00001A20EB96FE6D7FEEC39F054
:103FF000E3D7A6EC29F0E0D7C4EC2CF0DDD7030121
:104000007CB7E9D77CB9E7D70301E18B0301B46B37
:1040100037ECDDF00001800E556FA4EC26F0CCD714
:1040200003017CB702D07CA9D6D72C0E006E390EC6
:10403000016E440E026E000EB2EC01F0050E006E31
:104040003A0E016E440E026E200EB2EC01F0060E26
:10405000006E440E026E200EB2EC01F0070E006EF0
:10406000000EB2EC01F079C346F07AC347F07BC38F
:1040700048F00001050E436F3A0E446F440E456F41
:10408000D8ECFBF00001050E836F3A0E846F440EEE
:10409000856F66ECD1F05FEC1EF08ED7810EBD19F6
:1040A00003E103017CA997D70001840EBD191EE12D
:1040B00003017CA790D77CAB8ED700013F0E486FE1
:1040C000070E496F000E4A6F4B0E456F1D0E466F6F
:1040D000440E476FE0ECC1F0006E010E007E800AD6
:1040E000005CD8B0EBEF1FF0DCEC78F0CBECDEF04E
:1040F000BDC055F0A4EC26F00301FF0EB36F030121
:10410000E19B5AD703017CB766D77CB964D7230EED
:10411000F66E050EF76E440EF86E0800060EF55C9E
:10412000D8B0EBEF1FF009EC28F0006E016AFF0E2B
:10413000000600C0B7F0012201C0B8F0B7C04CF0D3
:10414000F5EC1EF0000AD8A4DCEF1FF0F6EC86F0C8
:1041500021EC87F00301DA53D8B420EF21F079C3C2
:10416000BAF07AC3BBF07BC3BCF00001BA29E8CF38
:1041700079F3000EBB21E8CF7AF3BAC000F0BBC0E0
:1041800001F0000EBC21BCC002F003017B6F5CECAF
:1041900001F0490AD8A420EF21F000010F0E4D6F65
:1041A0002A0E4A6F050E4B6F440E4C6F6FEC28F0D1
:1041B000000AD8A4E8EF1FF0260EF66E050EF76E83
:1041C000440EF86E9DEC01F004C000F005C001F053
:1041D00006C002F007C003F04F0EF66E060EF76E33
:1041E000440EF86E9DEC01F00450005C055001583F
:1041F0000650025807500358D8B0EBEF1FF0250EB9
:10420000006E050E016E440E026E010EB2EC01F05E
:104210003A0E006E050E016E440E026E000EB2ECF8
:1042200001F00301DA5315E000010F0E4D6F3A0E55
:104230004A6F050E4B6F440E4C6F6FEC28F009D09F
:10424000250E006E050E016E440E026E000EB2ECDD
:1042500001F00301E18BB7C0B3F30301010EB46FAA
:1042600037ECDDF0250EF66E050EF76E440EF86E97
:104270000800F55202E072EC90F00001830E556FD9
:10428000A4EC26F099D603017CA7A5D67CBBA3D6C7
:104290000001860EBD191EE10001260E4D6F050EB0
:1042A0004A6F3A0E4B6F440E4C6F6FEC28F0000AC9
:1042B000D8A4E8EF1FF00001050E466F3A0E476FD5
:1042C000440E486FCA0E436F050E446F440E456F8F
:1042D000A2ECFCF043EC28F000C0B7F001C0B8F04D
:1042E0000001B8AF0BD0B71D006EB81D016E004ABB
:1042F000012A00C09BF301C09CF304D0B7C09BF31C
:10430000B8C09CF30001510E406F030E416F800E48
:10431000426F3EECC2F00001F20E436F010E446F9B
:10432000800E456F470E406F070E416F000E426FC3
:104330001DECC2F00001870EBD1913E103019B5172
:104340009C11D8B4E8EF1FF09B510301AD5D030150
:104350009C510301AE59D8A0E8EF1FF00301020EF3
:10436000DB6F0001880EBD1910E103019B519C1108
:10437000D8B4E8EF1FF0640E9B5D000E9C59D8B0D6
:10438000E8EF1FF00301010EDB6F0001860EBD197F
:1043900010E103019B519C11D8B4E8EF1FF0090E06
:1043A0009B5D000E9C59D8B0E8EF1FF00301400E52
:1043B000DB6F0301DA53D8B429EF22F00001030EBA
:1043C000546FF20E516F010E526F800E536FA5ECB9
:1043D00028F0000AD8A4E8EF1FF000013F0E486F54
:1043E000070E496F000E4A6FF20E456F010E466FC1
:1043F000800E476FE0ECC1F0006E00BEE8EF1FF0EA
:104400000301DB890301DA5324E00001020E546F3B
:10441000510E516F030E526F800E536FA5EC28F0B2
:10442000000AD8A4E8EF1FF000013F0E486F070E06
:10443000496F000E4A6F510E456F030E466F800E96
:10444000476FE0ECC1F0006E00BEE8EF1FF0030123
:10445000DB850001010EB75D800EB87FB859B87FCB
:1044600003E3F5EC78F005D00001010EB26F9CEC8F
:1044700070F00001BD6FBD517F0B006E03017E51D6
:10448000800B00107E6F0001BD53D8A4E8EF1FF031
:104490005FEC1EF0DCEF1FF003017CA7EBEF1FF0D9
:1044A0007CBBEBEF1FF079C300F07AC301F07BC354
:1044B00002F05CEC01F00001BD6F0301792B000EEE
:1044C0007A237B230001530EBD1905E0500EBD1960
:1044D000D8A4E8EF1FF00001020E546F510E516F87
:1044E000030E526F800E536FA5EC28F0000AD8A47B
:1044F000E8EF1FF00301040EDB6F00013F0E486F71
:10450000070E496F000E4A6F510E456F030E466F3E
:10451000800E476FE0ECC1F0006E00AE18D00001D5
:10452000510E476F030E486F800E496F510E446F56
:10453000030E456F800E466FA9ECC1F00001530ECB
:10454000BD19030102E12D0E0AD02B0E08D0000187
:10455000530EBD19030102E12C0E01D02A0EC66FC5
:10456000C2EC7DF00001BD6F7F0B006E03017E5138
:10457000800B00107E6F0001BD53D8A4E8EF1FF040
:104580005FEC1EF0DCEF1FF003017CA7EBEF1FF0E8
:104590007CBBEBEF1FF00AEC70F000018A0E406F5D
:1045A000E4EC26F00001330E566F1C0E576F440EDC
:1045B000586F63EC27F00001080E5D6FBB0E5A6F59
:1045C0001C0E5B6F440E5C6F7EEC27F003EC1EF05C
:1045D000DCEF1FF003017CA7EBEF1FF07CAB17D0E3
:1045E00000013F0E486F070E496F000E4A6F4B0ED9
:1045F000456F1D0E466F440E476FE0ECC1F0006E34
:10460000010E007E800A005CD8A0EBEF1FF00301D2
:10461000DB6B0001BD6B0301DA531EE009EC28F0EF
:10462000FF0F0001BD6F090EBD5DD8B0E8EF1FF0B0
:104630000301DA5311E00001020E546F510E516F65
:10464000030E526F800E536FA5EC28F0000AD8A419
:10465000E8EF1FF00301DB85BDC0ABF03CEC76F06A
:104660000001BD6F7F0B006E03017E51800B0010B7
:104670007E6F0001BD53D8A4E8EF1FF000018B0E40
:10468000406FE4EC26F000014B0E566F1D0E576F85
:10469000440E586F63EC27F003EC1EF0DCEF1FF0C4
:1046A00003017CA7EBEF1FF063EC70F05FEC1EF0F2
:1046B000DCEF1FF003017CB9EBEF1FF07CB7EBEFF1
:1046C0001FF0230EF66E050EF76E440EF86E08000E
:1046D000060EF55CD8B0EBEF1FF009EC28F0006E89
:1046E000016AFF0E000600C0B7F0012201C0B8F059
:1046F000B7C04CF0F5EC1EF0000AD8A4DCEF1FF0B8
:1047000009EC28F0FF0F0001BD6F090EBD5DD8B0A8
:10471000E8EF1FF00001020E546F510E516F030EAF
:10472000526F800E536FA5EC28F0000AD8A4E8EF72
:104730001FF000013F0E486F070E496F000E4A6FD1
:10474000510E456F030E466F800E476FE0ECC1F0CF
:10475000006E00AE13D003012B0EC66F0001510E88
:10476000476F030E486F800E496F510E446F030E62
:10477000456F800E466FA9ECC1F003D003012A0EED
:10478000C66FB7C0B3F3BDC0ACF03FEC81F0000121
:10479000B76FB86B7F0B006E03017E51800B00106A
:1047A0007E6F0001B75303E07BEC1EF04FD0000199
:1047B0008D0E406FE4EC26F0BDC000F0036A026A83
:1047C000016A030EA3EC00F0BF0E0024046E2D0E50
:1047D0000120056E440E022004C056F005C057F0BB
:1047E0000001586F63EC27F0BDC000F0036A026A55
:1047F000016A030EA3EC00F0070E0024046E2E0ED7
:104800000120056E440E022004C056F005C057F08A
:104810000001586F63EC27F0BDC000F0036A026A24
:10482000016A030EA3EC00F0980E0024046E2B0E18
:104830000120056E440E022004C056F005C057F05A
:104840000001586F63EC27F003EC1EF00301FF0E2C
:10485000B36FDCEF1FF003017CB9EBEF1FF07CB707
:10486000EBEF1FF0AE0EF66E050EF76E440EF86E0F
:1048700073EC01F004C000F005C001F0B00EF66E5C
:10488000050EF76E440EF86E73EC01F0015005183A
:1048900002E100500418D8B4EBEF1FF003EC91F0E4
:1048A0005FEC1EF0DCEF1FF0030EF66E000EF76EED
:1048B000440EF86E0800F5520CE003017CB9EBEFF2
:1048C0001FF07CB7EBEF1FF00001020EA56FDAECD2
:1048D000E3F00001910E406FE4EC26F0080EF66E56
:1048E000000EF76E440EF86E73EC01F00450580899
:1048F000006E1B0E055400C051F00001526F2BECEE
:1049000027F003EC1EF0DCEF1FF00001920E556F54
:10491000A4EC26F0DCEF1FF00001930E406FE4ECF6
:1049200026F0BBC300F0016A00BE0106004A012A5E
:1049300000C051F001C052F02BEC27F0250EF66EAE
:10494000050EF76E440EF86E08000001F5CF51F029
:10495000526B2BEC27F0260EF66E050EF76E440E0A
:10496000F86E9DEC01F004C051F005C052F006C095
:1049700053F007C054F048EC27F00001080E5D6FBB
:10498000BB0E5A6F1C0E5B6F440E5C6F7EEC27F003
:1049900003EC1EF0DCEF1FF003017CB9EBEF1FF01E
:1049A0007CB7EBEF1FF00301010EB46F0001990E0D
:1049B000406FE4EC26F0520EF66E340EF76E440EA5
:1049C000F86E73EC01F0044A052A04C051F005C0EA
:1049D00052F02BEC27F00001080E5D6FE00E5A6FCD
:1049E0002B0E5B6F440E5C6F7EEC27F00001010E16
:1049F000AD6FFF0EAC6F010EAB6F03ECBBF003ECC1
:104A00001EF0DCEF1FF003017CB9EBEF1FF07CB769
:104A1000EBEF1FF00301B46B0001AD6BAE6B010E49
:104A2000AC6FD4ECB7F05FEC1EF0DCEF1FF00301CD
:104A30007CB9EBEF1FF07CB7EBEF1FF00301B46B19
:104A40000001020EAD6FFF0EAC6F010EAB6F03ECF9
:104A5000BBF05FEC1EF0DCEF1FF003017CB9EBEF65
:104A60001FF07CB7EBEF1FF00301B46B0001040EE5
:104A7000AD6FFF0EAC6F010EAB6F03ECBBF05FECE4
:104A80001EF0DCEF1FF0E4ECFCF05FEC1EF0DCEF5E
:104A90001FF009EC28F00001B76FB86B06D04CECA2
:104AA000D1F00001FF0EB707B823010EB75D800EED
:104AB000B87FB859B87FF3E25FEC1EF0DCEF1FF06F
:104AC000B40E006E050E016E440E026E010EB2ECC5
:104AD00001F0DDC3D6F300017A6B7B51210AD8B413
:104AE000FCEF25F0020AD8B405EF26F0070AD8B487
:104AF0000BEF26F0010AD8B411EF26F0030AD8B460
:104B000017EF26F0010AD8B41DEF26F00F0AD8B42B
:104B100023EF26F0010AD8B4DCEF25F0190AD8B447
:104B200029EF26F0700AD8B432EF26F0100A3FE0E1
:104B3000010A3DE0030A3BE0010A39E0060AD8B465
:104B40002FEF26F0020AD8B42CEF26F0270AD8B4AB
:104B5000F9EF25F0010AD8B4FFEF25F0030AD8B425
:104B600002EF26F0010AD8B408EF26F0070AD8B4FD
:104B70000EEF26F0010AD8B414EF26F0030AD8B4D9
:104B80001AEF26F0010AD8B420EF26F00E0AD8B4A6
:104B900026EF26F0D90A2AE0010A01E066D00001DA
:104BA000A10E406FE4EC26F003EC1EF060D07BC059
:104BB00062F003EC39F05BD079C300F07AC301F006
:104BC0007BC302F05CEC01F0310A650E006E1D0E35
:104BD000016E440E026E04E1010EB2EC01F003D04E
:104BE000000EB2EC01F05FEC1EF041D0D6EC28F0E4
:104BF0003ED010EC2AF03BD06DEC2AF038D066ECB9
:104C00002BF035D07BEC2DF032D08DEC2DF02FD069
:104C100006EC2EF02CD0EAEC2EF029D0B0EC2FF0E0
:104C200026D018EC2EF023D099EC2EF020D00FECEB
:104C300030F01DD04CEC31F01AD02FEC32F017D000
:104C4000BBEC33F014D01BEC35F011D0A3EC35F0F5
:104C50000ED0A2EC36F00BD06AEC38F008D0E9ECBC
:104C60003DF005D04BEC36F002D07BC07AF0B40EAC
:104C7000006E050E016E440E026E000EB2EC01F0E5
:104C800000017A511200DA0E006E030E016E5EEC26
:104C900001F0046ED89004320450ACEC01F0030132
:104CA000280EDA5D04E37BEC1EF0000E4CD0000110
:104CB000270E526F536B050E4F6F3A0E506F440E16
:104CC000516F09ECAEF00001576B35D057C004F0BE
:104CD000066A056A050E0424546F3A0E0520556FC6
:104CE000440E0620566F03017929006E000E7A21CA
:104CF000016E000E7B21026E5CEC01F00F0B79C39C
:104D000000F07AC301F07BC302F0036E5CEC01F0AB
:104D1000006E0038F00B032454C000F055C001F0C1
:104D200056C002F0B2EC01F0020E7927000E7A2391
:104D30007B230001572B0301DA510001575DC6E3C5
:104D40005FEC1EF0010E120055C040F0E4EC26F0BE
:104D5000A9C300F0AAC301F0C00EF66E050EF76EEF
:104D6000440EF86E9DEC01F000500426015005221F
:104D7000000E0622072204C051F005C052F006C002
:104D800053F007C054F048EC27F0ABC300F0ACC3BD
:104D900001F0C60EF66E050EF76E440EF86E9DEC31
:104DA00001F00050042601500522000E06220722C1
:104DB00004C051F005C052F006C053F007C054F0D3
:104DC00048EC27F003EF1EF00301CC6B0301200E2B
:104DD000D85D02E2200ED86FD8C33FF006EC27F072
:104DE0000B0EF66E060EF76E440EF86E9DEC01F09B
:104DF0000450200F00013F6F06EC27F040C03FF049
:104E000006EC27F000013F6B06EF27F0CCC304F05F
:104E1000066A056A050E0424006E380E0520016E30
:104E2000440E0620026E00013F51B2EC01F0030176
:104E3000CC2B120040C000F000380F0B300F0001E7
:104E40003F6F06EC27F0000140510F0B300F0001BF
:104E50003F6F06EF27F00001506B050E4D6F3A0EC5
:104E60004E6F440E4F6F51C000F052C001F000C0B1
:104E700049F001C04AF04B6B4C6BBBECABF000014E
:104E8000050E496F3A0E4A6F440E4B6F9FEF27F0A5
:104E90000001506B050E4D6F3A0E4E6F440E4F6F72
:104EA00051C049F052C04AF053C04BF054C04CF0CE
:104EB000BBECABF00001050E496F3A0E4A6F440E91
:104EC0004B6F9FEF27F00001556BD6C354F0050ED2
:104ED000516F3A0E526F440E536F56C04EF057C08A
:104EE0004FF058C050F0F5ECBEF00001050E496FD0
:104EF0003A0E4A6F440E4B6F9FEF27F00001596B3B
:104F00001AD059C000F0036A026A016A030EA3ECCA
:104F100000F000505A25046E01505B21056E0250CE
:104F20005C2104C056F005C057F0E8CF58F063ECA0
:104F300027F00001592B5D51595DE3E3120049C090
:104F400046F04AC047F04BC048F0CCC300F0026ABC
:104F5000016A050E0024046E380E0120056E440E11
:104F6000022004C043F005C044F00001456FA2ECEC
:104F7000FCF049C042F04AC043F04BC044F076EC2C
:104F8000FCF000280301CC2712000001466BCCC3C3
:104F900000F0026A016A050E0024046E380E01203A
:104FA000056E440E022004C043F005C044F0456F76
:104FB00047C040F048C041F049C042F069ECA7F05A
:104FC0000301CC270001090E3F6F06EF27F0000117
:104FD000466BCCC300F0026A016A050E0024046E21
:104FE000380E0120056E440E022004C043F005C0B7
:104FF00044F0456F47C040F048C041F049C042F01E
:105000006FECA8F00301CC270001090E3F6F06EFFB
:1050100027F079C300F07AC301F07BC302F05CECA7
:1050200001F000013F6F03017929006E000E7A2123
:10503000016E000E7B21026E5CEC01F00001406FFE
:10504000300E3F5D0DE3400E3F5D0AE2300E405DE5
:1050500007E3400E405D04E20301020EDA5D02E266
:10506000FF0E10D00301020E7927000E7A237B2356
:105070000301FE0EDA27000140510F0B006E3F398D
:10508000F00B0024120079C344F07AC345F07BC3CF
:1050900046F053ECF8F000C048F001C049F079C385
:1050A00042F07AC343F07BC344F076ECFCF0002876
:1050B0000001476F03017927000E7A237B2300014B
:1050C00047510301DA5D02E2DA6B04D00001475177
:1050D0000301DA5F48C000F049C001F0120079C353
:1050E00042F07AC343F07BC344F076ECFCF000C09E
:1050F00049F0000149514D5D02E3495302E1010EBF
:1051000023D0492B79C346F07AC347F07BC348F0DC
:105110004AC043F04BC044F04CC045F0A2ECFCF058
:1051200049C000F0005003017927000E7A237B2349
:10513000000149510301DA5D02E2DA6B04D000019B
:1051400049510301DA5F000E120054C04FF051C004
:105150004CF052C04DF053C04EF079C349F07AC3C1
:105160004AF07BC34BF0FBECBFF0000A02E0010EFB
:105170001CD079C342F07AC343F07BC344F076EC91
:10518000FCF000280001506F03017927000E7A23FC
:105190007B23000150510301DA5D02E2DA6B04D097
:1051A000000150510301DA5F000E12000001A00E51
:1051B000406FE4EC26F00001AA0E496F360E4A6FEC
:1051C000440E4B6F9FEC27F00001BA0E496F360E6C
:1051D0004A6F440E4B6F9FEC27F00001CA0E496FD7
:1051E000360E4A6F440E4B6F9FEC27F00001DA0E2B
:1051F000496F360E4A6F440E4B6F9FEC27F000014B
:105200005F0E496F090E4A6F000E4B6F9FEC27F03F
:1052100000016E0E476F090E486F000E496FC5EC16
:1052200027F00001710E476F090E486F000E496F9D
:10523000E7EC27F00001050E4C6F3A0E4D6F440E5F
:105240004E6F870EF66E000EF76E440EF86E73EC1E
:1052500001F005C001F001380F0B00013F6FFFECBA
:10526000AFF04CC000F04DC001F04EC002F0B2EC07
:1052700001F00001060E4C6F3A0E4D6F440E4E6F5A
:10528000870EF66E000EF76E440EF86E73EC01F0AA
:1052900005C001F001500F0B00013F6FFFECAFF0B4
:1052A0004CC000F04DC001F04EC002F0B2EC01F075
:1052B0000001070E4C6F3A0E4D6F440E4E6F870E75
:1052C000F66E000EF76E440EF86E73EC01F00438C3
:1052D0000F0B00013F6FFFECAFF04CC000F04DC072
:1052E00001F04EC002F0B2EC01F00001080E4C6F6C
:1052F0003A0E4D6F440E4E6F870EF66E000EF76E2F
:10530000440EF86E73EC01F004500F0B00013F6F78
:10531000FFECAFF04CC000F04DC001F04EC002F009
:10532000B2EC01F0090E006E3A0E016E440E026EF0
:10533000000EB2EC01F00001050E496F3A0E4A6F03
:10534000440E4B6F9FEC27F003EF1EF009EC28F0A2
:10535000FF0F0001B66F180EB65DD8B00DEF2AF042
:10536000B65303E0010EB61935E10301060E7925A7
:10537000006E000E7A21016E000E7B21026E000E7F
:10538000AAEC01F079C3B3F07AC3B4F07BC3B5F0F3
:105390000001B26BB5EC43F0000A3FE10301070ED8
:1053A0007925006E000E7A21016E000E7B2100C06F
:1053B000B3F001C0B4F00001B56F010EB26FB5ECEF
:1053C00043F0000A2AE1B9EC42F0000A26E15FEC62
:1053D0001EF025D079C3B3F07AC3B4F07BC3B5F027
:1053E000B6C0B2F0B5EC43F0000A17E15FEC1EF076
:1053F0000001090EB61913E179C344F07AC345F0F0
:105400007BC346F053ECF8F000C0B6F00001B6C024
:1054100040F0416B39EC58F002D07BEC1EF01200EA
:1054200009EC28F0FF0F0001536F180E535D03E3E2
:105430007BEC1EF051D00001700E406FE4EC26F0C2
:10544000000153290001406F1AEC27F0000153536B
:1054500003E0010E531925E10001FD0E506F020E0D
:10546000516F800E526FC8ECE6F00001F20E4F6FE4
:10547000040E506F440E516F3AECE6F00001FD0E41
:10548000476F020E486F800E496FC5EC27F0000190
:10549000F20E476F040E486F440E496FE7EC27F099
:1054A00019D053C000F0036A026A016A020EA3EC2D
:1054B00000F0F30E0024F66E050E0120F76E440E88
:1054C0000220F86E9DEC01F004C051F005C052F0CE
:1054D0002BEC27F003EC1EF01200230EF66E050EE7
:1054E000F76E440EF86E0800060EF55C03E37FECE1
:1054F0001EF0EBD009EC28F0FF0F00016E6F080ED4
:105500006E5DD8B063EF2BF00301C9B7DCD00001AA
:105510000C0E4D6F050E4A6F3A0E4B6F440E4C6FDA
:105520006FEC28F0000AD8A463EF2BF06EC04CF0AB
:10553000F5EC1EF0000AD8A465EF2BF079C348F013
:105540007AC349F07BC34AF05BECF6F000C069F324
:1055500001C06AF302C06BF303C06CF303016A512C
:10556000070A05E16951D50A02E16C516B11D8B403
:1055700063EF2BF069516A116B116C11D8B463EFB2
:105580002BF000016F6B6FC000F06EC002F0036A79
:10559000030E0226D8B0032A035202E1005002187B
:1055A00022E06FC000F0036A026A016A020EA3ECF7
:1055B00000F0530E0024F66E060E0120F76E440E26
:1055C0000220F86E9DEC01F0075003016C1908E110
:1055D00006506B1905E105506A1902E1045069197A
:1055E000D8B463EF2BF000016F2B0B0E6F5DCBE394
:1055F0000001050E466F3A0E476F440E486F6EC0AD
:1056000000F0036A026A016A0D0E046E056A066AFA
:10561000076AC0EC00F0CF0E0824006E060E0920C9
:10562000016E440E0A2000C043F001C044F0456FF3
:10563000A2ECFCF06EC000F0016A030E0026D8B0A8
:10564000012A000E01BEFF0E036E026E020EA3ECD5
:1056500000F0530E002469C300F0046E060E012012
:105660006AC301F0056E440E02206BC302F06CC3E6
:1056700003F0066EA4EC02F00001680E6C6F6D6B17
:10568000CF0E696F060E6A6F440E6B6F820E656FE8
:105690001F0E666F676B686B61ECE0F000012C0E0B
:1056A0006C6F6D6B530E696F060E6A6F440E6B6FF5
:1056B000FB0E656F1E0E666F676B686B61ECE0F04A
:1056C0005FEC1EF002D07BEC1EF0120009EC28F01B
:1056D000FF0F00015E6F080E5E5D03E37BEC1EF0C2
:1056E00052D10001710E406FE4EC26F000015E29FA
:1056F0000001406F1AEC27F05EC000F0036A026AF6
:10570000016A0D0E046E056A066A076AC0EC00F0B5
:10571000CF0E0824006E060E0920016E440E0A20EA
:1057200000C049F001C04AF000014B6F9FEC27F028
:105730005EC000F0026A016AD89000360136023677
:10574000C00E0024F66E260E0120F76E440E0220D5
:10575000F86E73EC01F004C051F005C052F02BEC70
:1057600027F00001090E5D6F5EC000F0036A026A57
:10577000016A480E046E056A066A076AC0EC00F00A
:10578000D00E0824006E260E0920016E440E0A2059
:1057900000C05AF001C05BF05C6F7EEC27F00001A6
:1057A0005F6B5FC004F0056AD890043605365EC0B2
:1057B00000F0036A026A016A020EA3EC00F000C066
:1057C00008F001C009F002C00AF0440E0824006E7F
:1057D0002C0E0920016E440E0A20026E0450002691
:1057E00000C0F6FF0550012201C0F7FF000E0222A3
:1057F00002C0F8FF73EC01F004C051F005C052F094
:105800002BEC27F05FC000F0036A026A016A030E06
:10581000A3EC00F000C004F001C005F002C006F0E7
:105820005EC000F0036A026A016A040EA3EC00F095
:10583000640E0024086E2C0E0120096E440E022016
:105840000A6E045008260550092206500A2208C094
:1058500056F009C057F00AC058F063EC27F0000179
:105860005F2B020E5F5DD8A0D1EF2BF05EC000F081
:10587000026A016AD8900036013602366F0E0024A3
:10588000F66E2D0E0120F76E440E0220F86E73ECBA
:1058900001F004C051F005C052F02BEC27F05EC0BF
:1058A00000F0036A026A016A030EA3EC00F07F0EA7
:1058B0000024046E2D0E0120056E440E022004C04B
:1058C00056F005C057F00001586F63EC27F0000157
:1058D000090E5D6F5EC000F0036A026A016A480E3D
:1058E000046E056A066A076AC0EC00F04F0E0824D1
:1058F000006E2E0E0920016E440E0A2000C05AF0E0
:1059000001C05BF05C6F7EEC27F00001090E5D6F5B
:105910005EC000F0036A026A016A480E046E056AFE
:10592000066A076AC0EC00F08F0E0824006E300E85
:105930000920016E440E0A2000C05AF001C05BF03D
:105940005C6F7EEC27F00001090E5D6F5EC000F019
:10595000036A026A016A480E046E056A066A076AEB
:10596000C0EC00F0100E0824006E290E0920016E14
:10597000440E0A2000C05AF001C05BF05C6F7EEC60
:1059800027F003EC1EF012000301C9B10DD0560E32
:10599000F66E340EF76E440EF86E73EC01F0330EB3
:1059A000045C000E055803E37FEC1EF0A3D0000159
:1059B000A46B0001020E546F2C0E516F3A0E526F01
:1059C000440E536FA5EC28F0000AD8A478EF2DF010
:1059D00000015F0E486F070E496F000E4A6F2C0ED4
:1059E000456F3A0E466F440E476FE0ECC1F0006E13
:1059F000010E007E800A005CD8B078EF2DF0000127
:105A00003F0E486F070E496F000E4A6F2C0E456F10
:105A10003A0E466F440E476FE0ECC1F0006E00AEE8
:105A20000FD000012C0E436F3A0E446F440E456FA9
:105A30004F0E406F070E416F000E426F1DECC2F01B
:105A4000A4C000F0036A026A016A030EA3EC00F02E
:105A50006D0E0024046E050E0120056E440E02201A
:105A600004C043F005C044F00001456F2C0E406FA8
:105A70003A0E416F440E426F1DECC2F00001A42BA0
:105A8000080EA45DD8A0D9EF2CF00001400E476F9E
:105A9000486B496B4A6B6D0E446F050E456F440EA3
:105AA000466F7F0E416F060E426F440E436F11EC3E
:105AB000FBF00050011019E00001400E4C6F4D6BDF
:105AC0004E6B4F6B6D0E496F050E4A6F440E4B6F58
:105AD0007F0E466F060E476F440E486F99ECFBF041
