:020000040000FA
:100000000EEF00F0FFFFFFFFEFEFD0F0FFFFFFFF6D
:10001000FFFFFFFFFFFFFFFFF8EFD1F020EE0CF036
:100020008AEC03F1E86602D016EF00F0E2ECFAF099
:1000300001C0DDFF00C0DDFF20EC00F023EF00F089
:10004000000023EF00F00000FED7010FE84E120081
:10005000D8900036FBD7026A090E036E00360150B5
:10006000034E05D00236025CD8B0026EF7D70050BE
:100070001200000E01AE03D0011E012A010E00AED7
:1000800003D0001E002A030A046E026A090E036EE2
:100090000036034E06D002360150025CD8B0026E24
:1000A000F7D704B2026C005004B0E86C1200010FE4
:1000B000E84E1200D89000360136FAD7046A056A75
:1000C000110E066E003601360250064E120004363E
:1000D0000536045C076E03500558F4E3056E07C04F
:1000E00004F0F0D7000E03AE05D0031E021E024A34
:1000F000032A010E01AE05D0011E001E004A012A8E
:10010000030A086E046A056A110E066E003601368F
:10011000064E0CD0043605360250045C076E0350C0
:100120000558F4E3056E07C004F0F0D708A004D02A
:10013000001E011E004A012A08A21200041E051E0C
:10014000044A052A1200010FE84E1200D89000362A
:10015000013602360336F8D7010FE84E1200D89068
:100160000332023201320032F8D7010FE84E12009A
:10017000D89003BED8800332023201320032F6D763
:10018000086A096A0A6A0B6AD89007320632053291
:10019000043206E2075006100510041009E11200AF
:1001A000005008260150092202500A2203500B2257
:1001B000D8900036013602360336E6D7086A096A57
:1001C0000A6A0B6A210E0C6E0036013602360336BF
:1001D00004500C4E1200083609360A360B36085CFD
:1001E0000550095806500A5807500B58D8A0ECD7AC
:1001F0000450085A0550095A06500A5A07500B5A1B
:10020000E3D7000E07AE0CD0071E061E051E041E07
:10021000042A05E1052A03E1062A01E1072A010E65
:1002200003AE0CD0031E021E011E001E002A05E1B3
:10023000012A03E1022A01E1032A030AE96E086A9E
:10024000096A0A6A0B6A210E0C6E00360136023604
:10025000033604500C4E15D0083609360A360B36D4
:10026000085C0550095806500A5807500B58EDE332
:100270000450085A0550095A06500A5A07500B5A9A
:10028000E4D7E9A00BD0001E011E021E031E002AA7
:1002900005E1012A03E1022A01E1032AE9A2120091
:1002A000081E091E0A1E0B1E082A05E1092A03E181
:1002B0000A2A01E10B2A120002AE06D000C0E9FFB3
:1002C00001C0EAFFEF50120000C0F6FF01C0F7FFC7
:1002D00002C0F8FF0800F550120000C0F6FF01C090
:1002E000F7FF02C0F8FF0900F5CF04F00900F5CFD1
:1002F00005F0120002AE0BD000C0E9FF01C0EAFF1A
:10030000EECF04F0EECF05F0EFCF06F0120000C004
:10031000F6FF01C0F7FF02C0F8FF0900F5CF04F0B7
:100320000900F5CF05F00900F5CF06F0120000C076
:10033000F6FF01C0F7FF02C0F8FF0900F5CF04F097
:100340000900F5CF05F00900F5CF06F00900F5CF5B
:1003500007F0120002AE06D000C0E9FF01C0EAFFBC
:10036000EF6E120002AC120000C0F6FF01C0F7FFF2
:1003700002C0F8FFF56E0C00120002AE09D000C0FA
:10038000E9FF01C0EAFF04C0EEFF05C0EFFF120065
:1003900002AC120000C0F6FF01C0F7FF02C0F8FF78
:1003A00004C0F5FF0D0005C0F5FF0D00120000C0F0
:1003B000F6FF01C0F7FF02C0F8FF04C0F5FF0D0013
:1003C00005C0F5FF0D0006C0F5FF0D00120002ACE0
:1003D000120000C0F6FF01C0F7FF02C0F8FF04C022
:1003E000F5FF0D0005C0F5FF0D0006C0F5FF0D007F
:1003F00007C0F5FF0D00120006AE09D004C0E9FFEA
:1004000005C0EAFFEECF00F0EFCF01F0120004C00C
:10041000F6FF05C0F7FF06C0F8FF0900F5CF00F0B2
:100420000900F5CF01F0120006AE0BD004C0E9FFC1
:1004300005C0EAFFEECF00F0EECF01F0EFCF02F003
:10044000120004C0F6FF05C0F7FF06C0F8FF090060
:10045000F5CF00F00900F5CF01F00900F5CF02F06B
:10046000120006AE0DD004C0E9FF05C0EAFFEECFD2
:1004700000F0EECF01F0EECF02F0EFCF03F012006C
:1004800004C0F6FF05C0F7FF06C0F8FF0900F5CF6E
:1004900000F00900F5CF01F00900F5CF02F00900E6
:1004A000F5CF03F0120004C0F6FF05C0F7FF06C049
:1004B000F8FFF56E0C00120006AE09D004C0E9FF8B
:1004C00005C0EAFF00C0EEFF01C0EFFF120006AC5E
:1004D000120004C0F6FF05C0F7FF06C0F8FF00C019
:1004E000F5FF0D0001C0F5FF0D00120006AE0BD0A8
:1004F00004C0E9FF05C0EAFF00C0EEFF01C0EEFF47
:1005000002C0EFFF120006AC120004C0F6FF05C0E7
:10051000F7FF06C0F8FF00C0F5FF0D0001C0F5FFB2
:100520000D0002C0F5FF0D00120006AE0DD004C094
:10053000E9FF05C0EAFF00C0EEFF01C0EEFF02C008
:10054000EEFF03C0EFFF120006AC120004C0F6FF7E
:1005500005C0F7FF06C0F8FF00C0F5FF0D0001C0A1
:10056000F5FF0D0002C0F5FF0D0003C0F5FF0D0003
:1005700012004E6F76203237203230313000257332
:10058000307825303458002500454B4C204C696E9E
:10059000653A00AD5314E5ABAC20AD20202020B966
:1005A00020AE20AFB0B1B2B32020202020202020E8
:1005B00020B420B5B6B7B820BABB4A20BC2020BDB5
:1005C00020BE20202020BF20204969C0202020C13B
:1005D00020C2206A5373C3418042818245833384A1
:1005E000854B864D484F875043548889588A8B8C59
:1005F0008D8E8F9091929361949596976598999A24
:100600009B6B9C6D9D6F9E70639F79A078A1A2A348
:10061000A4A5A6A7A8A9AA205F2B302E2C2D3F2782
:1006200022403A3B2F282931414243324445463348
:10063000474849344A4B4C354D4E4F365051525332
:1006400037545556385758595A3900205F2B302E99
:100650002C2D3F2722403A3B2F28293161626332FB
:1006600064656633676869346A6B6C356D6E6F36C6
:100670007071727337747576387778797A390000CB
:10068000041115191D21252A2E33205F2B302E2C05
:100690002D3F2722403A3B2F282931C0C1C2C33207
:1006A000C4C5C6C733C8C9CACB34CCCDCECF35D06C
:1006B000D1D2D336D4D5D6D737D8D9DADB38DCDDAA
:1006C000DEDF3900205F2B302E2C2D3F2722403AD1
:1006D0003B2F282931E0E1E2E332E4E5E6E733E8C5
:1006E000E9EAEB34ECEDEEEF35F0F1F2F336F4F548
:1006F000F6F737F8F9FAFB38FCFDFEFF3900000485
:1007000011161B20252A2F34390028280B320B3ACA
:100710000C083B103308060404B0046009C01280C2
:10072000254038004B8070009600E1CF6733674466
:1007300033211910100800000800EE0700E307003D
:10074000000000000000000000000000000003E8BE
:10075000FFFFFFFFFFFFFC18000000000000271054
:10076000000000000001869600000000000186A045
:1007700000000000000F42400000000005F5E0FF0F
:10078000000000003B9AC9F6000000003B9AC9FF38
:10079000FFFFFFFFC465360100000002540BE3F6C3
:1007A000000000174876E7F6000000E8D4A50FF631
:1007B000464D205343414E3A2020202530356C5879
:1007C000004552523D256420414444523D30782535
:1007D00030356C5800257325303264002573253080
:1007E000346400202020204469676974730020432A
:1007F0007972696C6C6963204C65747465727300FE
:1008000020204C6174696E204C65747465727300AD
:1008100020204153434949204D6F646500566F6C59
:10082000746167650025642E253032640054657359
:100830007420525332203A204641494C005465738B
:100840007420525332203A204F4B00546573742069
:10085000525331203A204641494C0054657374206C
:10086000525331203A204F4B003031323334353639
:10087000370030313233343536373839414243442A
:10088000454600434F4445205041474520435031A1
:100890003235310000454B4C3A2000257330782525
:1008A00030345800504C553A20004445503A20000E
:1008B0005052494E544552205445535400307825E7
:1008C000303258004B42443A200000001F003B00E9
:1008D0005A0078009700B500D400F30011013001F0
:1008E0004E01010000000A00000064000000E8035F
:1008F000000010270000A086010040420F008096F3
:10090000980000E1F50500CA9A3B2A20204C4F5779
:1009100020504F5745522020202A00C5C8CA2042E7
:10092000C8C43A0000464D20434C4F5345443A005A
:100930002A2053455256494345204D4F4445202ACD
:1009400000202D00010200C5C8CA2042C8C43A00D8
:1009500020002078200025732031202D20257500CF
:10096000D1C5D0C2C8C73A005A2000253032643AF7
:1009700030300000202D005A4954203230313000F0
:100980000000000000004D6963726F20312E30209E
:100990000000000000010B0A0800002A202020456A
:1009A000435220323031302020202A00C1FAEBE3BC
:1009B000E0F0E8FF00CBE5E2E000191500151500B6
:1009C0000A1500FD1400F01400E21400DC1400D23B
:1009D0001400C81400BD1400B21400AA14009D1421
:1009E000009214008814007C14006F14006314003B
:1009F0005714004C14004014003314002B1400232F
:100A000014000604010202020201010103010201B5
:100A100001010201010201020A0A000000000000B7
:100A200000000000000002000000000000000200C2
:100A300000000100000000000000010000000000B4
:100A400000000000000000000000000000000000A6
:100A50000000000000000000000000000000000096
:100A60000000000000000000000000000000000086
:100A70000000010000000100000000000000000074
:100A800000000200000009000000090000006300EF
:100A900000006300000001000000030000000800E7
:100AA000000090000000030000006300000001004F
:100AB000000001000000010000000A000000010029
:100AC0000000010000000B000000010000006300B6
:100AD0000000FEFFFFFFFEFFFFFF00000000000020
:100AE00000000200000003000000010000000A00F6
:100AF00000000100000001000000010000000300F0
:100B0000000050000000020000001C000000000077
:100B100000000000000000000000050000000000D0
:100B200000000000000000000000000000000100C4
:100B3000000001000000FFC99A3BBC1500B315007E
:100B4000AA1500E8030000D0070000B80B00000160
:100B50000000000200000003000000040000000587
:100B6000000000060000000700000008000000A0D0
:100B700015009615008C15008215007815006E156D
:100B8000006415005A150057150054150051150042
:100B90004E15004B15004815004515004215003C48
:100BA00015003615003015002A15002415001E15F5
:100BB000006E13006813005F13005613004D1300FE
:100BC0004413003B130032130029130020130000CC
:100BD000000000000000000000000000004E2000A7
:100BE00000000000004E200000000000001B58FF25
:100BF000FFFFFFFFFFFC18FFFFFFFFFFFFFC18FFD9
:100C0000FFFFFFFFFFFC18FFFFFFFFFFFFFC1801C6
:100C100001000000000000000000000000000000D3
:100C2000001313000B13000913000913000913002C
:100C30000913000913000913000913000013000928
:100C40001300091300091300091300091300091305
:100C500000091300091300CAC0D1C8C5D05F00C481
:100C6000C5CFC0D0D25F000101C0D0D2C8CAD3CB9B
:100C700000C0D0D25F006200000000000000000150
:100C8000000000000000000003E800000000000079
:100C900003E800000000000003E80000000000007E
:100CA00003E800000000000003E80000000000006E
:100CB00003E800000000000003E80000000000005E
:100CC00003E800000000000003E8F91200F312003E
:100CD000EC1200E31200DB1200D51200CF1200C6A6
:100CE0001200C01200B012001614000D1400FF1301
:100CF00000EE1300E61300E01300D01300C313004E
:100D0000B61300A713009E13009D130090130083D9
:100D10001300741300F01700E41700D81700CA1767
:100D200000BE1700B21700A617009817008C170016
:100D30007F1700711700621700531700AB18009B54
:100D400018008C18009D13007F18006E18005E18A4
:100D5000005318004418003718002818001918000C
:100D6000081800FE17009216008516009D130074E7
:100D70001600651600C2DAC2C5C4C5D2C520CACEE7
:100D8000CBC8D72E009D13005816004D16004016F4
:100D9000003716002E16002C16002A16001D16000D
:100DA000121600041600F51500E51500D61500C54D
:100DB00015004317003217002817001F17001517DA
:100DC000000C1700011700F416002A202020202014
:100DD0004F46462020202020202A00CFD0C5CADA46
:100DE000D1CDC0D2002020CFEEF2E2FAF0E4E5F25D
:100DF000E5203F00CDD3CBC8D0C0CD2052414D001F
:100E0000C8EDE8F6E8E0EBE8E7E0F6E8FF2E2E2E86
:100E10000020CDF3EBE8F0E0EDE520D1F3ECE800C5
:100E2000CCEEEBFF2C20E8E7F7E0EAE0E9F2E52181
:100E300000CDF3EBE8F0E0ED20466C617368002A2A
:100E40002A2E2A2A25002A2A2E2A2A002D2D2D0074
:100E5000CDDFCCC020CFD0CEC4C0C6C1C800435364
:100E60003D00CFCED2C22E2000D1CFC0C420CDC0F5
:100E7000CFD0C5C6C5CDC8C500C7C0CFC8D1C0CDAD
:100E8000202100D4C8D1CAC0CBC8C7C0D6C8DF0093
:100E9000CFC0D0CECBC03A00CFD0CEC3D0C0CC00D4
:100EA000D2C5D1D22031202D203700D2C5D1D200D9
:100EB000D4CF3A20CFDACBCDC0002020CDDFCCC0BC
:100EC00020D5C0D0D2C8DF00CFD0C5C3D02E20CF10
:100ED000D0C8CDD2C5D000C8CCC500424300CFCBCE
:100EE0002E00CFC0D0C0CC2E00D6C5CDC000C4C50A
:100EF000CFC0D0D200D1CCDFCDC020C4C0D2C02F53
:100F0000D7C0D100D1CCDFCDC020C4C5D12E20D2D6
:100F1000CED7CAC000D1CCDFCDC020C4C0CD2ED129
:100F2000D2C0C2CAC800C7C0C22ECD2E00D4C8D1FC
:100F3000CA2ECD2E00C5C8CA3A00C7C4C4D13A00D3
:100F4000C5C8CA00C7C4C4D100D1D3CCC000CC2E00
:100F5000D1D3CCC000CACED0C5CAD6C8DF20CC2ED3
:100F6000D1D3CCC000CACED0C5CAD6C8C80020CF05
:100F7000CECAD3CFCAC800CFCBC0D2C5CDCE00D049
:100F8000C5D1D2CE00CFCBC0D9C0CDC520312D2503
:100F9000752054544C00CACECB00C4C8D02ECFD03C
:100FA000CEC42E00D1D3CCC000CDD3CBC5C2C82077
:100FB000D0C5C3C8D1D2D0C800CEC1D9CE00C220BE
:100FC000CDC0CBC8D7CDCED1D200CFD0CEC4C0C635
:100FD000C1C800CFCECBD3D7C5CDC800C4CDC5C204
:100FE000C5CD20CEC1CED0CED200C4CDC5C2C5CDD8
:100FF00020D4C8CDC0CDD1CEC200CED2D7C5D2204C
:10100000CFD0CEC4C0C6C1C800CED2D7C5D220CFA3
:10101000CE20CAC0D1C8C5D0C800CED2D7C5D22034
:10102000CFCE20C0D0D2C8CAD3CBC800CED2D7C56D
:10103000D220CFCE20C4C5CFC0D0D22E00CFCED7A5
:10104000C0D1CEC220CED2D7C5D200C1CBCECA200D
:10105000D4CF00CED2D7C5D220D4CF00CED2D7C5E0
:10106000D220D4C8D1CAC0CBCDC020CFC0CCC5D22D
:1010700000C2DAC2C5C4C5CDC020C220C5CAD1CF06
:10108000CBCEC0D2C0D6C8DF00D120D320CC20C068
:101090002020CEC1CED0CED22C20C4C4D100CED2FE
:1010A0003A00C4CE3A00CED220C4C0D2C03A00C466
:1010B000CE20C4C0D2C03A00CED220C1CBCECA3AD4
:1010C00000C4CE20C1CBCECA3A00CDC5D2CE00D10D
:1010D000D3CCC020CDC5D2CE00D1D3CCC020C4C487
:1010E000D100D1D3CCC020CEC1CED0CED200CEC183
:1010F000D920CEC1CED0CED200D1C2CEC1CEC4CDA9
:10110000C820C1CBCECAC000C4C4D100CDD3CBC887
:10111000D0C0CD2052414D00CDD3CBC8D0C0CD20C2
:1011200052414D00CDD3CBC8D0C0CD4500D4CF3A2D
:1011300020256420C1CBCECAC000D4CF3A2025647C
:1011400020C1CBCECAC020CED1D2C0C2C0D200E80E
:101150001600DC1600CACED0C5CAD6C8DF00C0CD86
:10116000D3CBC8D0C0CDC500C0CDD3CBC8D0C0CDA7
:10117000000000000000000000000000000000006F
:1011800000D31600CA1600C11600B81600C4C0D29B
:10119000C020C4CEC3CEC2CED000202020CED1D21B
:1011A000C0C2C0D220256420C4CDC820C4CE20C86F
:1011B000C7D2C8D7C0CDC50020202020CED1D2C0F4
:1011C000C2C020256420C4C5CD20C4CE20C8C7D24B
:1011D000C8D7C0CDC50020202020CDC020C4CEC39C
:1011E000CEC2CED0C020C7C020D1C5D0C2C8C72172
:1011F00021210000CED0C8C3C8CDC0CB00D4C0CA06
:10120000D2D3D0C0204E6F2E2000CFD0CEC4C0C2CB
:10121000C0D73A00CFCECBD3D7C0D2C5CB3A00CAC5
:10122000D3CFD3C2C0D73A00C0C4D0C5D13A00C5CD
:10123000CACB3A00D0C0C7CFC5D7C0D2CAC020C51C
:10124000CACB00CAD0C0C920D0C0C7CFC5D7C0D272
:10125000CAC020C5CACB00C8C7D2D0C8D2C020C51A
:10126000CACB00C5CACB20CED220CDCECCC5D03A79
:101270002000C4CE3A2000CDCECCC5D020CFCED1D8
:10128000CB2E20C4CECAD3CCC5CDD23A00010203A6
:10129000040506000708090A0B0C00B51600B21673
:1012A00000AF1600AC1600A61600A016009D160092
:1012B000D1C8D1D22E20CFC0D0C0CCC5D2D0C8008A
:1012C000C1C0CDCAC000CAD02ECAC0D0D2C000CFC3
:1012D000CB2E203700CFCB2E203600C0CCC1C0CBC8
:1012E000C0C600C22ED2C0CBCECDC800D2C0CBCE9D
:1012F000CDC800D120D7C5CA00C220C1D0CEC900F8
:10130000474F4F442042594500200057454C434F1A
:101310004D45005A49542045435220323031300067
:10132000CEC1CED0CED22AC700CEC1CED0CED22A08
:10133000C600CEC1CED0CED22AC500CEC1CED0CE30
:10134000D22AC400CEC1CED0CED22AC300CEC1CEC6
:10135000D0CED22AC200CEC1CED0CED22AC100CEAB
:10136000C1CED0CED22AC000C4C4D12AC700C4C4C2
:10137000D12AC600C3D02E20CACECBC8D7C5D1D261
:10138000C2CE00C3D02E20D1D2CEC9CDCED1D20074
:10139000C3D02E20CECFC5D0C0D6C8DF0000C4D366
:1013A000C1CBC8CAC0D200CDC5D4C8D1CAC0CBC574
:1013B000CD20C1CECD00D4C8D1CAC0CBC5CD20C1AF
:1013C000CECD00D1CBD3C6C5C1C5CD20C1CECD00B9
:1013D000C2C8C4CEC2C520CFCBC0D9C0CDC8DF00E3
:1013E000CACBC8D8C500CAC0D1C8C5D0C800CACEEB
:1013F000D0C5CAD6C8C820CDC020D6C5CDC800C467
:10140000C0CDDAD7CDC820C3D0D3CFC800C0D0D28A
:10141000C8CAD3CBC800C4C5CFC0D0D2C0CCC5CDFC
:10142000D2C800D4C0CAD22EC4CE00D4C0CAD22ED4
:10143000CED200C0C2D2CECC2E20C8C7CACB2E007E
:10144000CCCED2CED020D2C5CCCF2E00CDC0D1D2E2
:10145000D02E20C4CD2E00CFDACBC5CD20CFC5D71E
:10146000C0D200C7C0C4DACB2E20D1D3CCC000CAB2
:10147000CECDD2D02E20CFC5D7C0D200D1D3CCC0B4
:1014800020C220CFCB2E3200CFC5D7C0D220C4C4BB
:10149000D100C1C0D0CACEC42043524300D2C5C37C
:1014A000CB2E20C1C0D0CACEC400C2C8C420C5CA79
:1014B000CB00CFC5D7C0D220CBCEC3CE0052532055
:1014C000D1CACED0CED1D200C2C8C420C2C5C7CDE9
:1014D000C000C5CAC020D0C5C6C8CC00C5CAC0207F
:1014E0002300CFD0C0C7CDC820D0C5C4CEC2C50050
:1014F000D0C5C4CEC2C520D0C5CACB2E00D0C5C46D
:10150000CEC2C520CACBC8D8C500C4C5D12E20D2F2
:10151000CED7CAC000D7C0D100C4C0D2C000C4C496
:10152000D12AC500C4C4D12AC400C4C4D12AC3006E
:10153000C4C4D12AC200C4C4D12AC100C4C4D12A9F
:10154000C0002AC7002AC6002AC5002AC4002AC330
:10155000002AC2002AC1002AC000C42EC3D0D3CFA3
:10156000C020C700C42EC3D0D3CFC020C600C42E15
:10157000C3D0D3CFC020C500C42EC3D0D3CFC0208A
:10158000C400C42EC3D0D3CFC020C300C42EC3D048
:10159000D3CFC020C200C42EC3D0D3CFC020C1003F
:1015A000C42EC3D0D3CFC020C000CFC0D0CECBC0BC
:1015B000205A00CFC0D0CECBC0205800CFC0D0CE54
:1015C000CBC0205000D4CF3A20C3D02ECACECDD22B
:1015D000D02ECACEC400D4CF3A20C3D02E20D4CE31
:1015E000D0CCC0D200D4CF3A20CFD0C0C7C5CD20F8
:1015F000C1CBCECA00D4CF3A20C3D02E20D7C5D27B
:10160000C5CDC500D4CF3A20C3D02E20C7C0CFC887
:10161000D100D4CF3A20CBC8CFD1C2C000D4CF3A6A
:1016200020C8C7CFD0C0C2CDC0005A0058005A2D24
:10163000CED2D7C5D2C800582DCED2D7C5D2C80079
:10164000415441524B20283132303029004341531C
:10165000202839363030290042494D434F2028395F
:101660003630302900C5CACB20CFD0C5CFDACBC2A7
:10167000C0CDC500CFD0C5CF2ECDCECC2ED4C0CAC4
:10168000D2D3D0C000CFD0C5CF2E20D1CCC5D2CAA6
:10169000C800C7C0C1D02E20CCC0D1C0002044009B
:1016A0002053556E640020534F7672002046002070
:1016B0005300204300204D00CED2D1D2DACFCAC889
:1016C00000CDC0C4C1C0C2CAC800CED2D1D2DACF08
:1016D000CAC000CDC0C4C1C0C2CAC000D1CB2EC8D0
:1016E000C7C2C5C4C5CDC800D1CB2EC2DAC2C5C4DD
:1016F000C5CDC800C4D0CEC1CDC820D7C8D1CBC0BD
:1017000000D6C5CBC820D7C8D1CBC000CAD02EC107
:10171000CBCECA3A00CDC0D72EC1CBCECA3A00CA72
:10172000D02EC4C0D2C03A00CDC0D72EC4C0D2C0C3
:101730003A00D4CF3A20C3D02ECDC5C7C0CF2ECECD
:10174000C1CB00D4CF3A20C3D02E20CEC1CED0CE34
:10175000D2C800C7C0C1D02E20C4C0D2C02FD7C0AD
:10176000D100C7C0C1D02E20CECFC5D0C0D6C8DFD3
:1017700000CDC5C2C0CB2E20CFC0D0CECBC000C3C1
:10178000D02E20CACED0C5CAD6C8DF00C3D02E20E6
:10179000CFD0CED6C5CDD200C3D02E20CFC0D0C0A2
:1017A000CCC5D2DAD000C4D3C1CBC8D0C0CD20CFF5
:1017B0002E00CDC5C2C0CB2E20D1D3CCC000CDD3FE
:1017C000CBC5C2C020D6C5CDC000C7C0C1D02E2059
:1017D000C0D0D2C8CAD3CB00C7C0C1D02E20CED271
:1017E000C4C5CB00C3D02E20C0D0D2C8CAD3CB0032
:1017F000C3D02E20C4C0CD2EC3D0D3CFC000D4CFF1
:101800003A20CFDACBCDC000C8C7CCC8CDC0CBC83A
:1018100020323420D7C0D1C000CFD0C5CF2E20CAAF
:10182000CED0C5CAD6C8C800CFD0C5CF2E20CFCB0A
:10183000C0D9C0CDC8DF00CFD0C5CF2E20CED2C4F6
:10184000C5CBC800CFD0C5CF2E20C0D0D2C8CAD3F8
:10185000CBC800CFD0C5CF2E20D1C5C9D400CFD0A2
:10186000C5CF2ED2C5CA2ED1CCC5D2CAC000C2CBDC
:10187000C5C7D2C520C2205A2DD0C5C6C8CC00C30A
:10188000D02E20C4C0D2C02FD7C0D100C7C0C1D075
:101890002E20CECFC5D02E20504300C3D02E20C442
:1018A000C0CDCDC820C2C5C7CDC000C3D02E20C179
:1018B000CBCECA001404280A00000000000000007B
:1018C0000000000000000000000000000000000018
:1018D0000000000000000000000000000000000008
:1018E0000C001E001E001E001E001E001E001E001A
:1018F0000C000C000C000C000C000C0000000000A0
:101900000C001E001E000C000000000031807BC097
:101910007BC0318063000000000000000000000078
:1019200000000000000000000000000000000000B7
:1019300033003300330033007F807F803300330077
:101940003300330033003300330033007F807F8067
:1019500033003300330033000C000C001E003F0046
:101960006D806D806C003C001C000C000E000F00B0
:101970000D800D806D806D803F001E000C000C00FE
:10198000000039806D806D803B000300030006007D
:1019900006000C000C000C0018001800300030008D
:1019A00037006D806D806700000000001C003E0065
:1019B000630063006300630036001C0018003800F9
:1019C0006C006D8067806780630063003F801D80CE
:1019D000000000000C001E001E000C00180000009B
:1019E00000000000000000000000000000000000F7
:1019F0000000000000000000030006000C000C00C6
:101A0000180030003000300070007000700070006E
:101A100030003000300018000C000C0006000300FD
:101A200060003000180018000C00060006000600D8
:101A300007000700070007000600060006000C006C
:101A400018001800300060000000000000000000D6
:101A50000000618033001E007F807F801E00330005
:101A60006180000000000000000000000000000095
:101A7000000000000000000000000C000C000C0042
:101A80000C007F807F800C000C000C000C0000001C
:101A90000000000000000000000000000000000046
:101AA0000000000000000000000000000000000036
:101AB00000000C001E001E000E0006000C001800A6
:101AC0000000000000000000000000000000000016
:101AD00000007F007F007F00000000000000000089
:101AE00000000000000000000000000000000000F6
:101AF00000000000000000000000000000000000E6
:101B000000000000000000000C001E001E000C0081
:101B100000000180018003000300030006000600AE
:101B200006000C000C000C00180018001800300013
:101B300030003000600060001E003F006180618066
:101B40006180638067806580658069806980698065
:101B50006980798071806180618061803F001E00B2
:101B60000C000C001C001C003C003C000C000C0095
:101B70000C000C000C000C000C000C000C000C0005
:101B80000C000C000C000C001E003F006180618006
:101B90006180018001800180030006000C001800B4
:101BA0003000600060006000600063007F007F0024
:101BB0001E003F0061806180018001800180030080
:101BC0000E000E0003000180018001800180018071
:101BD000618061803F001E000300030007000700D2
:101BE0000F000F000F001B001B00330033006300C9
:101BF00063007F807F800300030003000300030075
:101C00007F807F8060006000600060007E007E005A
:101C100003000300018001800180018001800180B8
:101C2000030003007E007C0007000F001800300056
:101C300060006000600060007E007F006180618065
:101C40006180618061806180618061803F001E00F1
:101C50007F807F800180018001800180030003007C
:101C6000030006000600060006000C000C000C0035
:101C70000C000C000C000C001E003F006180618015
:101C800061806180618061803F003F006180618090
:101C90006180618061806180618061803F001E00A1
:101CA0001E003F0061806180618061806180618091
:101CB00061803F801F800180018001800180018060
:101CC000030006003C003C000000000000000C0087
:101CD0001E001E000C0000000000000000000000BC
:101CE00000000C001E001E000C00000000000000A0
:101CF0000000000000000C001E001E000C00000090
:101D0000000000000000000000000C001E001E008B
:101D10000C0018000000000000000000008001809E
:101D2000030006000C001800300060006000300066
:101D300018000C0006000300018000800000000075
:101D40000000000000000000000000007F007F0095
:101D50007F000000000000007F007F007F00000087
:101D600000000000000000000000000040006000D3
:101D7000300018000C000600030001800180030001
:101D800006000C0018003000600040000000000059
:101D90001E003F00618061806180018001800180C0
:101DA000030006000C000C000C000C0000000000FA
:101DB0000C001E001E000C001E003F0061806180B0
:101DC00061806180618067806F806D806D806D80D3
:101DD0006D806F8067006000600060003F801F8042
:101DE0000C000C001E003300330033006180618062
:101DF0006180618061807F807F806180618061809F
:101E000061806180618061807E007F00618061808F
:101E1000618061806180618061807F007F0061807E
:101E20006180618061806180618061807F007E006F
:101E30001E003F0061806180618060006000600082
:101E40006000600060006000600060006000618011
:101E5000618061803F001E007C007E006300618025
:101E6000618061806180618061806180618061806A
:101E70006180618061806180618063007E007C00A0
:101E80007F807F8060006000600060006000600014
:101E900060007F007F006000600060006000600004
:101EA000600060007F807F807F807F8060006000B6
:101EB000600060006000600060007F007F006000E4
:101EC0006000600060006000600060006000600012
:101ED0001E003F0061806180618061806000600061
:101EE0006000600060006780678061806180618061
:101EF000618061803F001F0061806180618061803E
:101F0000618061806180618061807F807F8061808D
:101F100061806180618061806180618061806180B9
:101F20003F003F000C000C000C000C000C000C00EB
:101F30000C000C000C000C000C000C000C000C0041
:101F40000C000C003F003F000180018001800180F7
:101F50000180018001800180018001800180018079
:101F60000180618061806180618061803F001E002E
:101F700061806180618061806180630063006600D0
:101F800066007C007C006600660063006300618080
:101F9000618061806180618060006000600060003D
:101FA0006000600060006000600060006000600031
:101FB0006000600060006000600060007F807F80E3
:101FC00061806180618061807380738073807380C1
:101FD0006D806D806D8061806180618061806180D5
:101FE00061806180618061806180618061806180E9
:101FF00061806180618071807180798079806D807D
:102000006D806780678063806380618061806180AC
:102010001E003F006180618061806180618061801D
:1020200061806180618061806180618061806180A8
:10203000618061803F001E007E007F0061806180C2
:10204000618061806180618061807F007E006000CE
:102050006000600060006000600060006000600080
:102060001E003F00618061806180618061806180CD
:102070006180618061806180618061806180618058
:1020800067803F801F8001807E007F0061806180CB
:10209000618061806180618061807F007F006180FC
:1020A0006180618061806180618061806180618028
:1020B0001E003F00618061806000600060003000B1
:1020C00018000C00060003000180018001800180DF
:1020D000618061803F001E007F807F800C000C00CB
:1020E0000C000C000C000C000C000C000C000C0090
:1020F0000C000C000C000C000C000C000C000C0080
:1021000061806180618061806180618061806180C7
:1021100061806180618061806180618061806180B7
:10212000618061803F001E0061806180618061800C
:102130006180618061806180618061806180618097
:1021400061806180330033001E001E000C000C0013
:102150006180618061806180618061806180618077
:102160006180618061806D806D806D806D807F8019
:102170003F00330033003300618061806180618003
:102180006180330033001E001E000C000C001E0096
:102190001E00330033006180618061806180618056
:1021A0006180618061806180618061806180618027
:1021B000330033001E001E000C000C000C000C004D
:1021C0000C000C000C000C007F807F8001800180DF
:1021D000018001800180030006000C00180030001F
:1021E0006000600060006000600060007F807F80B1
:1021F0003F003F0030003000300030003000300041
:10220000300030003000300030003000300030004E
:10221000300030003F003F000000600060003000F0
:10222000300030001800180018000C000C000C00E2
:102230000600060006000300030003000180018081
:102240003F003F00030003000300030003000300FE
:102250000300030003000300030003000300030066
:10226000030003003F003F0006000F00198030C04C
:10227000000000000000000000000000000000005E
:10228000000000000000000000000000000000004E
:10229000000000000000000000000000000000003E
:1022A000000000000000000000000000000000002E
:1022B000000000007F807F80300018000C000600C6
:1022C000030000000000000000000000000000000B
:1022D00000000000000000000000000000000000FE
:1022E00000000000000000000000000000001E00D0
:1022F0001F000180018001801F803F80618061801C
:10230000618061803F801F800000000000000000AD
:1023100060006000600060007E007F00618061807E
:102320006180618061806180618061807F007E006A
:1023300000000000000000000000000000001E007F
:102340003F006180618060006000600060006000AC
:10235000618061803F001E000000000000000180DD
:102360000180018001801F803F80618061806180E9
:102370006180618061806180618061803F801F80B9
:1023800000000000000000000000000000001E002F
:102390003F006180618061807F807F80600060009D
:1023A000600060003F001F00000000000000070008
:1023B0000F00180018001800180018007F007F0098
:1023C000180018001800180018001800180018004D
:1023D00000000000000000000000000000001F805E
:1023E0003F80618061806180618061807F803F800B
:1023F000018001807F007E0000000000000060007E
:1024000060006000600060007E007F00618061808D
:1024100061806180618061806180618061806180B4
:1024200000000C001E001E000C0000003C003C00E0
:102430000C000C000C000C000C000C000C000C003C
:102440000C000C003F003F0000000C001E001E00AE
:102450000C00000000003C003C000C000C000C00D4
:102460000C000C000C000C000C000C003C003800B0
:10247000000000000000600060006000618061807A
:102480006180630066006C00780078006C00660074
:1024900063006180618061800000000000003C00FA
:1024A0003C000C000C000C000C000C000C000C009C
:1024B0000C000C000C000C000C000C003F003F0056
:1024C00000000000000000000000000000007E008E
:1024D0007F006D806D806D806D806D806D806D8002
:1024E0006D806D8061806180000000000000000050
:1024F0000000000000007E007F006180618061803C
:1025000061806180618061806180618061806180C3
:1025100000000000000000000000000000001E009D
:102520003F00618061806180618061806180618045
:10253000618061803F001E0000000000000000007C
:102540000000000000007E007F00618061806180EB
:10255000618061807F007E0060006000600060003C
:1025600000000000000000000000000000001F80CC
:102570003F806180618061806180618061803F8097
:102580001F80018001800180000000000000000029
:10259000000000000000630067007C00780070000D
:1025A000600060006000600060006000600060002B
:1025B00000000000000000000000000000001F807C
:1025C0003F806000600060003E001F0001800180CD
:1025D000018001807F007E000000000000001800E4
:1025E0001800180018007F007F001800180018005D
:1025F0001800180018001800180018000F80078035
:1026000000000000000000000000000000006180E9
:1026100061806180618061806180618061806180B2
:10262000618061803F801F8000000000000000008A
:102630000000000000006180618061806180618035
:1026400061806180330033001E001E000C000C000E
:102650000000000000000000000000000000618099
:1026600061806180618061806D806D806D807F8020
:102670003F00330033003300000000000000000082
:1026800000000000618061806180618031801E00F7
:102690000C001E0033006180618061806180618078
:1026A0000000000000000000000000000000618049
:1026B000618061806180618061803F801F800180D6
:1026C000018001801F001E000000000000000000CB
:1026D0000000000000007F807F80018001800300F7
:1026E00006000C0018003000600060007F807F80D2
:1026F0000300030006000600060006000C000C00A4
:102700000C00380038000C000C000C00060006001D
:1027100006000600030003000C000C000C000C0077
:102720000C000C000C000C000C000C000C000C0049
:102730000C000C000C000C000C000C000C000C0039
:102740003000300018001800180018000C000C00B1
:102750000C00070007000C000C000C00180018000B
:102760001800180030003000000000000000084091
:102770001C4036C036C0238021000000000000004D
:102780000000000000000000000000000000000049
:102790007F807F807F807F807F807F807F807F8041
:1027A0007F807F807F807F807F807F807F807F8031
:1027B0007F807F807F807F807F007F00600060005F
:1027C0006000600060007E007F0061806180618049
:1027D0006180618061806180618061807F007E00B6
:1027E0007F807F80600060006000600060006000AB
:1027F00060006000600060006000600060006000D9
:102800006000600060006000030003000700070034
:102810000F000F001B001B00330033003300330098
:1028200033003300330033007F807F80618061801C
:102830006D806D806D806D806D806D806D806D8030
:102840003F001E001E003F006D806D806D806D801A
:102850006D806D806D806D80618061806180618040
:1028600061806180618063806380678067806D8044
:102870006D80798079807180618061806180618004
:102880006D806D8061806180618061806180638026
:102890006380678067806D806D80798079807180CA
:1028A00061806180618061800F801F803180318014
:1028B0003180318031803180318031803180318090
:1028C0003180318031803180318031806180618020
:1028D0007F807F80618061806180618061806180B4
:1028E00061806180618061806180618061806180E0
:1028F00061806180618061806180618061806180D0
:102900006180618061806180618061803F801F8023
:102910000180018001800180018001803F003E0034
:102920000C000C001E003F006D806D806D806D807E
:102930006D806D806D806D806D806D806D806D802F
:102940003F001E000C000C00630063006300630086
:10295000630063006300630063006300630063005F
:1029600063006300630063007F807F8001800180DB
:10297000618061806180618061806180618061804F
:10298000618061803F801F80018001800180018023
:1029900001800180018001806D806D806D806D807F
:1029A0006D806D806D806D806D806D806D806D80BF
:1029B0006D806D806D806D806D806D807F807F808B
:1029C0006D806D806D806D806D806D806D806D809F
:1029D0006D806D806D806D806D806D806D806D808F
:1029E0006D807FC07FC000C078007800180018009C
:1029F00018001800180018001E001F001980198008
:102A00001980198019801980198019801F001E00F3
:102A100061806180618061806180618061806180AE
:102A2000718079806D806D806D806D806D806D802E
:102A30006D806D8079807180300030003000300012
:102A400030003000300030003C003E0033003300E6
:102A50003300330033003300330033003E003C00CA
:102A60001E003F00618061806180018001800180E3
:102A700001801F801F8001800180018001806180B2
:102A8000618061803F001E0067006F806D806D80F7
:102A90006D806D806D806D806D807D807D806D80AE
:102AA0006D806D806D806D806D806D806F80670042
:102AB0001F803F8061806180618061806180618072
:102AC0003F801F800D800D800D801980198031801E
:102AD00031803180618061800000000000001F00B3
:102AE0003F00600060007E007F0061806180618047
:102AF0006180618061806180618061803F001E0033
:102B000000000000000000000000000000007E0047
:102B10007F006180618061807F007F0061806180D3
:102B2000618061807F007E000000000000000000E6
:102B30000000000000007F807F8060006000600077
:102B40006000600060006000600060006000600085
:102B5000000000000000000000000000000007006E
:102B60000F001B0033003300330033003300330009
:102B70007F807F8061806180000000000000000095
:102B80000000000000006D806D806D806D803F0052
:102B90001E001E003F006D806D806D806D806D8019
:102BA00000000000000000000000000000001E0007
:102BB0003F006180018001800700070001800180E3
:102BC000618061803F001E000000000000000000E6
:102BD000000000000000618061806180638063808C
:102BE000678067806D806D80798079807180618079
:102BF0000000000000000000000000000C006D80DC
:102C00006180618063806380678067806D806D8094
:102C100079807980718061800000000000000000F0
:102C20000000000000000F801F8031803180318063
:102C300031803180318031803180318061806180AC
:102C400000000000000000000000000000006180A3
:102C500061806180618061807F807F806180618030
:102C600061806180618061800000000000000000E0
:102C70000000000000007F807F80618061806180B3
:102C8000618061806180618061806180618061803C
:102C900000000000000000000000000000007F8035
:102CA0007F800C000C000C000C000C000C000C00D1
:102CB0000C000C000C000C000000000000000000E4
:102CC00000000C000C001E003F006D806D806D80C8
:102CD0006D806D806D806D803F001E000C000C00CB
:102CE0000000000000000000000000000000630081
:102CF00063006300630063006300630063006300BC
:102D00007F807F80018001800000000000000000C3
:102D1000000000000000618061806180618061804E
:102D200061803F801F8001800180018001800180DF
:102D300000000000000000000000000000006D80A6
:102D40006D806D806D806D806D806D806D806D801B
:102D50006D806D807F807F8000000000000000009B
:102D60000000000000006D806D806D806D806D80C2
:102D70006D806D806D806D807FC07FC000C000C0A1
:102D800000000000000000000000000000007800CB
:102D900078001800180018001F001F801980198083
:102DA000198019801F801F00000000000000000033
:102DB00000000000000061806180618061806180AE
:102DC00079807D806D806D806D806D807D80798063
:102DD00000000000000000000000000000003000C3
:102DE00030003000300030003E003F003300330040
:102DF000330033003F003E000000000000000000F0
:102E00000000000000007E007F0001800180018042
:102E10001F801F8001800180018001807F007E0073
:102E2000000000000000000000000000000067003B
:102E30006F806D806D806D807D807D806D806D8008
:102E40006D806D806F806700000000000000000052
:102E50000000000000001F803F8061806180618071
:102E600061807F803F800D800D80198031803180AE
:102E70007F807F8030003000300030003000300034
:102E8000300030003E003F003180318031803180A1
:102E90003180030006000C000C000C0000007F8055
:102EA0007F80600060006000600060006000600083
:102EB0006000600060006000600060006000600012
:102EC00000000000000000000C000C0000007F80EB
:102ED0007F80600060006000600060006000600053
:102EE00060006000600060000E001E0036003600CA
:102EF00036003600360036003600360037003780A0
:102F0000368036803680368036803680678067002F
:102F10006C006C006C006C006C006C006C006C0051
:102F20007E007F006D806D806D806D806D806D8016
:102F30006D806D806F0067000C000C006180618007
:102F4000618061806300630066006C007800780037
:102F50006C00660063006300618061806180618055
:102F60007F807F8030003000300030003000300043
:102F7000300030003E003F003180318031803180B0
:102F800031803180318031806180618061806180F9
:102F90006180618061806180618061806180618029
:102FA00061806180618061807F807F800C000C0087
:102FB00000000000000000000000000000003000E1
:102FC00030007C007C0030003E003F0031803180CA
:102FD00031800180030006000000000000000000B6
:102FE0000000000000000E001E0036003600370012
:102FF000378036803680368036803680678067003E
:1030000000000000000000000000000000006C0054
:103010006C006C006C007E007F006D806D806D80A8
:103020006D806D806F006E000000000000000C00DD
:103030000C000000618061806180630066006C00AC
:10304000780078006C0066006300618061806180B8
:103050000000000000000000000000000000300040
:10306000300030007C007C0030003E003F003180AA
:10307000318031803180318000000000000000008C
:1030800000000000000061806180618061806180DB
:1030900061806180618061807F807F800C000C0096
:1030A0001E003F00618061806000600060007F80E2
:1030B0007F80600060007F807F8060006000600033
:1030C000618061803F001E00618033001E006180CE
:1030D0006180618061806180618061803F801F804C
:1030E0000180018001800180030006001C0018009F
:1030F00000000000618033001E000C0000006180B1
:10310000618061806180618061803F801F8001807B
:10311000018001801F001E00018001807F807F8070
:10312000600060006000600060006000600060009F
:10313000600060006000600060006000600060008F
:1031400033003300000000007F807F80600060005B
:10315000600060007E007E00600060006000600033
:10316000600060007F807F801E003F006180618082
:10317000600060006000600060007F807F80600011
:103180006000600060006000618061803F001E00A0
:1031900033003300000000007F807F800C000C00B3
:1031A0000C000C000C000C000C000C000C000C00BF
:1031B0000C000C007F807F800000000000000000F9
:1031C0000000018001807F807F80600060006000DF
:1031D00060006000600060006000600060006000EF
:1031E00000000000330033000000000000001E005B
:1031F0003F006180618061807F807F80600060002F
:10320000600060003F001F000000000000000000A0
:10321000000000001E003F00618060006000600050
:103220007F807F8060006000600061803F801F00C1
:1032300000000000330033000000000000007F8029
:103240007F800C000C000C000C000C000C000C002B
:103250000C000C007F807F80000000000000000058
:10326000000000000000000000000000000000005E
:10327000000000000000000000000000000000004E
:10328000000000000000000000000000000000003E
:10329000000000000000000000000000000000002E
:1032A000000000000000000000000000000000001E
:1032B000000000000000000000000000000000000E
:1032C00000000000000000000000000000000000FE
:1032D00000000000000000000000000000000000EE
:1032E00000000000000000000000000000000000DE
:1032F00000000000000000000000000000000000CE
:1033000000000000000000000000000000000000BD
:1033100000000000000000000000000000000000AD
:103320001E003F007380E380C1C0C0C0C000C00069
:10333000C000E0006000700038001C000C000C00B1
:103340000C007C00F800C0400000000000000000FD
:10335000E000F8403FC00FC00600000000003FC082
:103360007FC07FC07800F000F000F000FFC0FFC019
:1033700000000000000000000000F000FFC01FC0BF
:1033800007C000000000F800FC00FC003E003C40CC
:103390003C4078C0F0C0E1C00000000007C00FC092
:1033A0001C0038007000E000C0000000000007C0F2
:1033B0001FC07FC0FC00F000E000C000C00081C062
:1033C0000000FF00FFC0C3C00000000000000000BC
:1033D000000000000000E000F800FC007C0030006D
:1033E000000000000000F80000000000E000F00015
:1033F00030003E001F8003C000C000C000C000C0FD
:103400000FC01F8038003000300030003000300026
:10341000C040C040C040C0C0C0C0C0C0C1C0E1C00A
:1034200078003C000E0006000600060006000600BC
:1034300006003E001E000C00FFC0E000E000C000DF
:10344000C000FFC0FFC0FFC000000000000000007F
:103450000000000003C00FC0FE00F000800000006C
:10346000F1C0F9C079C079C0F8C0F0C0E040800078
:10347000000000000000000000000000C000E000AC
:1034800078003E000FC003C081C081C08000C00032
:10349000E0C0FFC0FFC07E8000000000004000C010
:1034A00001C003800300030007000E00FC00F800C9
:1034B000F800F8007840F0C0F040E000C0000000E4
:1034C0001E00FF00F3C0C1C00000000000000000AB
:1034D00000000000000000007000E000C00080005C
:1034E000C000E000600030003800F800F00080000C
:1034F00000000000000000000000000000000000CC
:10350000464D20434C4F5345443A00003030303054
:1035100030303030303030303030303030303030AB
:10352000303030303030303030303030303030309B
:1035300030303030003003AC037004B804F8043489
:103540000568059805C805F0051C06400668068C48
:1035500006B006D006F40614073807580778079C0B
:1035600007C007E40708082C0858088008B008E4DA
:10357000081C096009F005D4064008C8084009ACD9
:1035800009100A680ABC0A0C0B580BA00BE80B2C9C
:103590000C6C0CAC0CEC0C2C0D680DA80DE80D2877
:1035A0000E680EA80EEC0E340F800FD00F2810847A
:1035B00010F0106C1100000000000000001B2C2A0D
:1035C00028290000001C2D2B343700000008313260
:1035D0003538000000302E333639000000004142FB
:1035E00043440000000D20242327000000000000B9
:1035F0000000000000101008040201010608081075
:10360000080806040404000404040C020201020277
:103610000C000009160000001F1F1F1F1F1F1F1F87
:1036200010101E11111E1F101010101010040A0A85
:103630000A0A1F1115150E040E151511111315196F
:10364000111115111315191111040A11111111116C
:103650001F1111111111111111110F01110E040E71
:103660001515150E0412121212121F011111110F4D
:103670000101011515151515151F15151515151F22
:10368000011808080E09090E111111191515191044
:1036900010101E11111E0E11010F01110E12151521
:1036A0001D1515120F11110F050911000E101E1115
:1036B000111E00001E111E111E00000F0808080830
:1036C0000000040A0A1F11000015150E1515000050
:1036D0001E010E011E000011131519110000151313
:1036E0001519110000040A111111000011111F1108
:1036F0001100001F1111111100001F040404040027
:1037000000040E150E0400001212121F0100001119
:10371000110F01010000151515151F0000151515D5
:103720001F01000018080E090E00001111191519CB
:10373000000010101E111E00001E010F011E0000CF
:1037400012151D151200000E110F09111F08080E89
:1037500009090A04001F101010100004000F0808C7
:1037600008040A0A0A0B0B1B1212121E131313155C
:103770001214181412111E08080E0909091111114A
:1037800011111F04001C101E11110600000E0A0B5F
:103790000B13000012121F1313001512141C121128
:1037A00000001C080E090900001111111F040F1060
:1037B0001F101F100F0A15110F01010E0502090934
:1037C000070106011F10101010100A1F101E101004
:1037D0001F0E11101E10110E0A1F040404041F00F6
:1037E000010F080808080A0E11111F100E00000F23
:1037F000101E100F0A000E0404040E1010101E11EB
:10380000111E000040C08030313233343536373835
:103810003941424344454600286E756C6C20706FF8
:10382000696E746572290030313233343536373879
:103830003961626364656600464C4F4154533F20D2
:1038400077726F6E6720666F726D61747465722037
:10385000696E7374616C6C656421003F3F3F0000CA
:103860002020202020202020202828282828202030
:103870002020202020202020202020202020202048
:1038800088101010101010101010101010101010C0
:1038900004040404040404040404101010101010A0
:1038A0001041414141414101010101010101010179
:1038B00001010101010101010101011010101010AD
:1038C000104242424242420202020202020202024A
:1038D0000202020202020202020202101010102072
:1038E00003018B6B8C6B0301D46B0301D36B03015E
:1038F000CE6B0301CA6B0301CB6B0301CC6B0301DD
:10390000CD6B0301460EDC6F0301A56BA66B0301B3
:10391000C26B03018F6B906B0301D06B0301D16B02
:103920000301A369A4690301D76B0301D86B0301E9
:10393000D96B380E006E050E016E440E026E000E3D
:10394000B2EC01F00001030E526F536B7C0E4F6F0F
:10395000030E506F800E516FB7EFB3F00301CB51E0
:103960000301CA1902E0010E01D0000E1200CBC300
:1039700000F0026A016A400E0024F66E370E012044
:10398000F76E440E0220F86E0800F5CF3FF00301F9
:10399000CB2B00013F511200CBC300F0026A016A39
:1039A000400E0024F66E370E0120F76E440E022002
:1039B000F86E0800F55012000301000EC26F9D98CA
:1039C0000000ACA2FED700003FC0ADFF0000ACA2DB
:1039D000FED7120011D0066A056A400E0424006E5C
:1039E000390E0520016E440E0620026E000148517A
:1039F000B2EC01F00301D32BAEEC1CF0000AD8B4FA
:103A0000E4EF1DF0B7EC1CF00001486F0301D45344
:103A10000001D8B4BAEF1DF0030E4819D3C304F067
:103A2000DAE1066A056A400E0424006E390E0520AC
:103A3000016E440E0620026E000EB2EC01F003018E
:103A4000D46B240EF66E060EF76E440EF86E9DECE7
:103A500001F0045005100610071005E10301C153E1
:103A6000D8B4E4EF1DF017EC1FF0000A06E00301E4
:103A7000C15303E1A8EC1FF0C0D00301070ED35DD2
:103A800008E3FFEC1DF0000A04E125EC1EF0000A3B
:103A900003E0A8EC1FF0B1D0430EF66E390EF76EBE
:103AA000440EF86E0800F5CF48F00001200E485D86
:103AB00012E3300E485D0FE2CA0EF66E050EF76E89
:103AC000440EF86E0800F55203E10301B3BF25D0A0
:103AD000B5EC1FF092D0800E485D1FE3A00E485D4C
:103AE0001CE2690EF66E1D0EF76E440EF86E0800AD
:103AF000F55203E00301C15310E00001990E48198B
:103B000009E16A0EF66E1D0EF76E440EF86E08009F
:103B1000F55203E1B5EC1FF070D0410EF66E390E90
:103B2000F76E440EF86E0800F5500301D71908E14E
:103B3000000148510301D91903E146EC1FF05DD0A3
:103B4000440EF86E0800F5CFD7F3D7C3D8F30001C1
:103B5000A10E481905E00301FC0E7C17800E7E17AC
:103B60000301450E796F390E7A6F440E7B6F0001A9
:103B7000485144D0020E481910E10301010ED46FE0
:103B8000400E006E390E016E440E026E020EB2EC53
:103B900001F00301010ED36F2FD7200E485DD8A08E
:103BA000FCEF1CF003010E0ECE5D0DE2CEC300F063
:103BB000016A420E0024E96E030E0120EA6E48C03D
:103BC000EEFFCE2B19D7CE6B03018B518C1115E173
:103BD0000301D46B0301C26B0301CE530EE0CEC3CD
:103BE00000F0016A420E0024E96E030E0120EA6E25
:103BF000EE6ACEC348F0CE6BBAD7000E1200440E68
:103C0000F66E390EF76E440EF86E0800D3C302F05C
:103C1000F550E00F0301DA6F006E036AF90E022619
:103C2000FF0E032202E10050021802E1000E01D053
:103C3000010E1200430E006E380E016E440E026E2D
:103C40000301CC511C0FB2EF01F00001416B010EDA
:103C50003F6F11D03FC004F0066A056A400E04248D
:103C6000006E390E0520016E440E0620026E000E15
:103C7000B2EC01F03F2B3FC000F0D3C302F0016A69
:103C8000036AFE0E0226FF0E03220250005C035060
:103C9000800A017E01581BE23FC000F0026A016AFF
:103CA000400E0024F66E390E0120F76E440E0220FD
:103CB000F86E0800F5CF40F040514127090E401939
:103CC000C9E03F53D7E0200E405DD4E263D0D3C3B8
:103CD00000F0016AFF0E00060122000E01BEFF0E79
:103CE000026E400E0024F66E390E0120F76E440E6F
:103CF0000220F86E0800F5500F0BD3C300F0046EDD
:103D0000016AFE0E0026FF0E0122000E01BEFF0E0C
:103D1000026E400E0024F66E390E0120F76E440E3E
:103D20000220F86E0800F538F00B042604C040F0BD
:103D3000D3C304F0056AFE0E0426FF0E0522000E12
:103D400005BEFF0E066E400E0424006E390E0520DF
:103D5000016E440E0620026E000EB2EC01F0D3C3D9
:103D600004F0056AFF0E04060522000E05BEFF0ED4
:103D7000066E400E0424006E390E0520016E440EBE
:103D80000620026E000EB2EC01F04151401902E132
:103D9000000E01D0010E12000001416B406B31D0CA
:103DA00040C000F0026A016A400E0024F66E380E30
:103DB0000120F76E440E0220F86E0800F55210E163
:103DC00040C004F0066A056A400E0424006E380EF6
:103DD0000520016E440E0620026E090EB2EC01F0C1
:103DE00040C000F0026A016A400E0024F66E380EF0
:103DF0000120F76E440E0220F86E0800F5504127AE
:103E0000402B0301CC510001405DCAE341C000F0EA
:103E100000380F0B300F00013F6F9EEC29F00001BE
:103E200041510F0B300F00013F6F9EEF29F0420E02
:103E3000F66E390EF76E440EF86E0800F550E00F7E
:103E400000013F6F12E0006E200EF66E060EF76E58
:103E5000440EF86E9DEC01F0075206E1065204E1B3
:103E6000055202E10050041802E1000E01D0010EDB
:103E70001200B9EC1FF0430EF66E390EF76E440EC9
:103E8000F86E0800F5CFD9F346EF1FF00001476B3D
:103E90000301CD6B0301CB6B0301CA6B0001020E62
:103EA0003F6FDCEC1CF0000000009D88000000006B
:103EB0009DB8FED70001466B02D0000E466FAEECF7
:103EC0001CF0000A1FE0CCEC1CF00001456F060E50
:103ED000451907E0150E451904E0160E451901E0D5
:103EE00022D0B7EC1CF00001456F060E451904E125
:103EF0000301D82B000E18D0160E4519DEE0150E62
:103F000045190BE000010A0E436F446BCBEC01F145
:103F10000001462BFA0E465DD2E3472B050E475DA6
:103F2000D8A048EF1FF0010E12000301FC0E7C1711
:103F3000800E7E17430EF66E390EF76E440EF86E45
:103F40000800F5CFD9F30001060E3F6FDCEF1CF03F
:103F50000301D96B0301D76B0001150E3F6FDCEF36
:103F60001CF003017C81A8EF1FF003017C83A8EF04
:103F70001FF01AEC1EF003017C950301010EF419E9
:103F800002E103017C8503017D91050EF66E370E7B
:103F9000F76E440EF86E0800F55201E07D817D93C6
:103FA0000301BC5302E003017D8303017D95880E6C
:103FB000F66E340EF76E440EF86E0800F55201E00E
:103FC0007D857D9D380EF66E050EF76E440EF86EFB
:103FD0000800060EF55C01E37D8D7C9D6A0EF66E91
:103FE0001D0EF76E440EF86E0800F55201E07C8D50
:103FF0007C51800900013F6F9EEC29F07C0E006E21
:10400000030E016E800E026E002A000E01220222B3
:104010005CEC01F0800900013F6F9EEC29F07C0E02
:10402000006E030E016E800E026E020E0026000E60
:10403000012202225CEC01F0800900013F6F9EEC3E
:1040400029F0CCEC1EF0CCC304F0066A056A400EE1
:104050000424006E380E0520016E440E0620026E08
:10406000030EB2EC01F003017D9B12000001080E6B
:104070004C5DD8B07EEF20F079C348F07AC349F0A8
:104080007BC34AF0C6ECFCF000C069F301C06AF3E0
:1040900002C06BF303C06CF34CC000F0016A030E66
:1040A0000026D8B0012A000E01BEFF0E036E026E7C
:1040B000020EA3EC00F0680E0024F66E060E01203E
:1040C000F76E440E0220F86E9DEC01F003016C5176
:1040D000071808E16B51061805E16A51051802E15D
:1040E000695104180FE0380E006E050E016E440E83
:1040F000026E5CEC01F0010FAAEC01F0B1EC1FF0D4
:10410000010E120079C342F07AC343F07BC344F03E
:104110000FEC03F1002800014B6F03017927000E1B
:104120007A237B2300014B510301DA5D02E2DA6B53
:1041300004D000014B510301DA5F000EE2D7C90E33
:10414000006E050E016E440E026E010EB2EC01F01F
:10415000DDC3D6F30001B96BBD51200AD8B442EFDC
:1041600021F0020AD8B445EF21F0080AD8B436EF9E
:1041700027F07E0AD8B43FEF21F0D40AD8B448EF34
:1041800021F0010AD8B4CCEF21F0030AD8B462EFD1
:1041900021F0010AD8B402EF22F0070AD8B4CCEF1C
:1041A00021F0010AD8B462EF21F0030AD8B4CEEFAF
:1041B00022F0010AD8B4CEEF22F00F0AD8B4CEEF25
:1041C00022F0010AD8B4D7EF23F0030AD8B44FEF96
:1041D00024F0010AD8B475EF24F0070AD8B4DBEF55
:1041E00024F0010AD8B4E5EF24F0030AD8B419EF9B
:1041F00027F0010AD8B41FEF27F01F0AD8B4B6EF92
:1042000025F0010AD8B4DFEF25F0030AD8B410EF87
:1042100026F0010AD8B417EF26F00A0AD8B457EFEF
:1042200026F0030AD8B4D9EF26F0010AD8B4EDEF8E
:1042300026F0070AD8B403EF27F0010AD8B4A4EF98
:1042400026F03F0A14E0B5EC1FF0C90E006E050E13
:10425000016E440E026E000EB2EC01F00001B95185
:104260001200B1EC1FF0F1D7B5EC1FF0EED7B5ECB2
:1042700028F0000AEAE00001A20EB96FE6D7A6EC2A
:104280003DF0E3D751EC2CF0E0D76FEC2FF0DDD709
:104290007B0EF66E1D0EF76E440EF86E0800F5529A
:1042A000E3E103017CB7E0D77CB9DED70301E18B02
:1042B0000301B46B0BECE3F00001800E556F16ECBC
:1042C00029F0C3D703017CB702D07CA9CDD7670EF4
:1042D000006E390E016E440E026E000EB2EC01F05B
:1042E0000001270E4B6F4C6B4D6B4E6B200E496FD0
:1042F0004A6B400E466F3A0E476F440E486F7EEC95
:1043000002F1400E006E3A0E016E440E026E230E54
:10431000B2EC01F079C342F07AC343F07BC344F0BE
:104320000FEC03F100C0B7F001C0B8F0B7C000F067
:10433000B8C001F0000E01BEFF0E00C04CF001C07D
:104340004DF000014E6F4F6F79C349F07AC34AF0C8
:104350007BC34BF0420E466F3A0E476F440E486FD8
:1043600004EC02F1650E006E3A0E016E440E026E10
:10437000230EB2EC01F0660E006E000EB2EC01F0FE
:104380000001400E836F3A0E846F440E856F56EC29
:10439000D7F095EC1FF059D7810EBD1903E1030149
:1043A0007CA962D70001840EBD191EE103017CA720
:1043B0005BD77CAB59D70001400E486F070E496FA1
:1043C000000E4A6F600E456F1D0E466F440E476F1C
:1043D000D0ECC7F0006E010E007E800A005CD8B001
:1043E00034EF21F0BDEC7DF09FECE4F0BDC055F062
:1043F00016EC29F00301FF0EB36F0301E19BB3EC50
:1044000002F123D77B0EF66E1D0EF76E440EF86E8A
:104410000800F552D8A434EF21F003017CB724D76B
:104420007CB922D7380EF66E050EF76E440EF86E84
:104430000800060EF55CD8B034EF21F0A2EC2AF0AB
:10444000006E016AFF0E000600C0B7F0012201C035
:10445000B8F0B7C04CF036EC20F0000AD8A425EF35
:1044600021F08BEC9DF0B6EC9DF00301DA53D8B44B
:10447000ABEF22F079C3BAF07AC3BBF07BC3BCF0D8
:104480000001BA29E8CF79F3000EBB21E8CF7AF317
:10449000BAC000F0BBC001F0000EBC21BCC002F0ED
:1044A00003017B6F5CEC01F0490AD8A4ABEF22F06A
:1044B00000010F0E4D6F3F0E4A6F050E4B6F440EFD
:1044C0004C6F08EC2BF0000AD8A431EF21F03B0E22
:1044D000F66E050EF76E440EF86E9DEC01F004C00A
:1044E00000F005C001F006C002F007C003F0640E42
:1044F000F66E060EF76E440EF86E9DEC01F0045059
:10450000005C055001580650025807500358D8B0B7
:1045100034EF21F03A0E006E050E016E440E026E6D
:10452000010EB2EC01F04F0E006E050E016E440E4E
:10453000026E000EB2EC01F00301DA5315E0000147
:104540000F0E4D6F4F0E4A6F050E4B6F440E4C6FA2
:1045500008EC2BF009D03A0E006E050E016E440EE9
:10456000026E000EB2EC01F00301E18BB7C0B3F3B1
:104570000301010EB46F0BECE3F03A0EF66E050E7C
:10458000F76E440EF86E0800F55202E008ECA7F052
:104590000001830E556F16EC29F057D603017CA756
:1045A00063D67CBB61D60001860EBD191EE10001F9
:1045B000260E4D6F400E4A6F3A0E4B6F440E4C6FF5
:1045C00008EC2BF0000AD8A431EF21F00001400ED6
:1045D000466F3A0E476F440E486FDF0E436F050E6D
:1045E000446F440E456F3BEC03F1DCEC2AF000C055
:1045F000B7F001C0B8F00001B8AF0BD0B71D006E26
:10460000B81D016E004A012A00C09BF301C09CF353
:1046100004D0B7C09BF3B8C09CF30001510E406FAB
:10462000030E416F800E426F2EECC8F00001F20EB7
:10463000436F010E446F800E456F480E406F070EAA
:10464000416F000E426F0DECC8F00001870EBD19DE
:1046500013E103019B519C11D8B431EF21F09B5120
:104660000301AD5D03019C510301AE59D8A031EFA8
:1046700021F00301020EDB6F0001880EBD1910E16D
:1046800003019B519C11D8B431EF21F0640E9B5D66
:10469000000E9C59D8B031EF21F00301010EDB6F01
:1046A0000001860EBD1910E103019B519C11D8B485
:1046B00031EF21F0090E9B5D000E9C59D8B031EF0F
:1046C00021F00301400EDB6F0301DA53D8B4B4EFDD
:1046D00023F00001030E546FF20E516F010E526F62
:1046E000800E536F3EEC2BF0000AD8A431EF21F07E
:1046F0000001400E486F070E496F000E4A6FF20E20
:10470000456F010E466F800E476FD0ECC7F0006E0C
:1047100000BE31EF21F00301DB890301DA5324E00D
:104720000001020E546F510E516F030E526F800E36
:10473000536F3EEC2BF0000AD8A431EF21F00001BA
:10474000400E486F070E496F000E4A6F510E456FBD
:10475000030E466F800E476FD0ECC7F0006E00BEB0
:1047600031EF21F00301DB850001010EB75D800E02
:10477000B87FB859B87F03E3D6EC7DF005D00001CF
:10478000010EB36F7BEC75F00001BD6FBD517F0B67
:10479000006E03017E51800B00107E6F0001BD533F
:1047A000D8A431EF21F095EC1FF025EF21F00301A3
:1047B0007CA734EF21F07CBB34EF21F079C300F00B
:1047C0007AC301F07BC302F05CEC01F00001BD6F25
:1047D0000301792B000E7A237B230001530EBD19B0
:1047E00005E0500EBD19D8A431EF21F00001020EF2
:1047F000546F510E516F030E526F800E536F3EEC8B
:104800002BF0000AD8A431EF21F00301040EDB6F76
:104810000001400E486F070E496F000E4A6F510E9F
:10482000456F030E466F800E476FD0ECC7F0006EE9
:1048300000AE18D00001510E476F030E486F800E76
:10484000496F510E446F030E456F800E466F99EC11
:10485000C7F00001530EBD19030102E12D0E0AD06D
:104860002B0E08D00001530EBD19030102E12C0EDE
:1048700001D02A0EC66FA3EC82F00001BD6F7F0B42
:10488000006E03017E51800B00107E6F0001BD534E
:10489000D8A431EF21F095EC1FF025EF21F00301B2
:1048A0007CA734EF21F07CBB34EF21F0E9EC74F00D
:1048B00000018A0E406F7CEC29F00001480E566F13
:1048C0001C0E576F440E586FFCEC29F00001080EC7
:1048D0005D6FD00E5A6F1C0E5B6F440E5C6F17EC51
:1048E0002AF039EC1FF025EF21F003017CA734EF0B
:1048F00021F07CAB17D00001400E486F070E496FC6
:10490000000E4A6F600E456F1D0E466F440E476FD6
:10491000D0ECC7F0006E010E007E800A005CD8A0CB
:1049200034EF21F00301DB6B0001BD6B0301DA53AF
:104930001EE0A2EC2AF0FF0F0001BD6F090EBD5D65
:10494000D8B031EF21F00301DA5311E00001020E7B
:10495000546F510E516F030E526F800E536F3EEC29
:104960002BF0000AD8A431EF21F00301DB85BDC094
:10497000ABF01BEC7BF00001BD6F7F0B006E030101
:104980007E51800B00107E6F0001BD53D8A431EF23
:1049900021F000018B0E406F7CEC29F00001600ECD
:1049A000566F1D0E576F440E586FFCEC29F039EC12
:1049B0001FF025EF21F003017CA734EF21F042EC3A
:1049C00075F095EC1FF025EF21F003017CB934EF71
:1049D00021F07CB734EF21F0380EF66E050EF76E3D
:1049E000440EF86E0800060EF55CD8B034EF21F0E6
:1049F000A2EC2AF0006E016AFF0E000600C0B7F0BC
:104A0000012201C0B8F0B7C04CF036EC20F0000A2B
:104A1000D8A425EF21F0A2EC2AF0FF0F0001BD6F12
:104A2000090EBD5DD8B031EF21F00001020E546FC8
:104A3000510E516F030E526F800E536F3EEC2BF0F0
:104A4000000AD8A431EF21F00001400E486F070E94
:104A5000496F000E4A6F510E456F030E466F800E70
:104A6000476FD0ECC7F0006E00AE13D003012B0EE1
:104A7000C66F0001510E476F030E486F800E496FDD
:104A8000510E446F030E456F800E466F99ECC7F0D0
:104A900003D003012A0EC66FB7C0B3F3BDC0ACF09C
:104AA00020EC86F00001B76FB86B7F0B006E03013E
:104AB0007E51800B00107E6F0001B75303E0B1EC14
:104AC0001FF04FD000018D0E406F7CEC29F0BDC06F
:104AD00000F0036A026A016A030EA3EC00F0E80E1C
:104AE0000024046E2D0E0120056E440E022004C029
:104AF00056F005C057F00001586FFCEC29F0BDC01E
:104B000000F0036A026A016A030EA3EC00F0420E91
:104B10000024046E2E0E0120056E440E022004C0F7
:104B200056F005C057F00001586FFCEC29F0BDC0ED
:104B300000F0036A026A016A030EA3EC00F0AF0EF4
:104B40000024046E2B0E0120056E440E022004C0CA
:104B500056F005C057F00001586FFCEC29F039EC15
:104B60001FF00301FF0EB36F25EF21F003017CB9A5
:104B700034EF21F07CB734EF21F0C30EF66E050E52
:104B8000F76E440EF86E73EC01F004C000F005C03F
:104B900001F0C50EF66E050EF76E440EF86E73EC5E
:104BA00001F00150051802E100500418D8B434EFA8
:104BB00021F099ECA7F095EC1FF025EF21F0030E02
:104BC000F66E000EF76E440EF86E0800F5520CE01B
:104BD00003017CB934EF21F07CB734EF21F0000100
:104BE000020EA56FF8ECE6F00001910E406F7CEC30
:104BF00029F0080EF66E000EF76E440EF86E73EC98
:104C000001F004505808006E1B0E055400C051F00E
:104C10000001526FC3EC29F039EC1FF025EF21F0B1
:104C20000001920E556F16EC29F025EF21F00001DE
:104C3000930E406F7CEC29F0BBC300F0016A00BE0C
:104C40000106004A012A00C051F001C052F0C3EC35
:104C500029F03A0EF66E050EF76E440EF86E080057
:104C60000001F5CF51F0526BC3EC29F03B0EF66E0C
:104C7000050EF76E440EF86E9DEC01F004C051F085
:104C800005C052F006C053F007C054F0E0EC29F024
:104C90000001080E5D6FD00E5A6F1C0E5B6F440E44
:104CA0005C6F17EC2AF039EC1FF025EF21F00301BF
:104CB0007CB934EF21F07CB734EF21F06A0EF66E48
:104CC0001D0EF76E440EF86E0800F552D8B434EF9E
:104CD00021F07B0EF66E1D0EF76E440EF86E080086
:104CE000F552D8A434EF21F00301010EB46F000196
:104CF000990E406F7CEC29F08D0EF66E340EF76E37
:104D0000440EF86E73EC01F0044A052A04C051F019
:104D100005C052F0C3EC29F00001080E5D6FF70EDC
:104D20005A6F2B0E5B6F440E5C6F17EC2AF000017C
:104D3000010EAD6FFF0EAC6F010EAB6FBEECC0F09D
:104D400039EC1FF025EF21F003017CB934EF21F09D
:104D50007CB734EF21F00301B46B00019D0E406F6E
:104D60007CEC29F08D0EF66E340EF76E440EF86E64
:104D700073EC01F0044A052A04C051F005C052F05A
:104D8000C3EC29F00001080E5D6FF70E5A6F2B0E71
:104D90005B6F440E5C6F17EC2AF00001010EAD6FE3
:104DA000FF0EAC6FAB6BBEECC0F039EC1FF025EF23
:104DB00021F003017CB934EF21F07CB734EF21F00E
:104DC0000301B46B0001AD6BAE6B010EAC6F8DECEB
:104DD000BDF095EC1FF025EF21F003017CB934EF15
:104DE00021F07CB734EF21F00301B46B0001020E17
:104DF000AD6FFF0EAC6F010EAB6FBEECC0F095EC6B
:104E00001FF025EF21F003017CB934EF21F07CB7CE
:104E100034EF21F00301B46B0001040EAD6FFF0EFF
:104E2000AC6F010EAB6FBEECC0F095EC1FF025EF40
:104E300021F07DEC03F195EC1FF025EF21F0A2ECC1
:104E40002AF00001B76FB86B06D03CECD7F0000138
:104E5000FF0EB707B823010EB75D800EB87FB859B3
:104E6000B87FF3E295EC1FF025EF21F00301C15369
:104E70000BE1050EF66E370EF76E440EF86E080065
:104E8000F552D8A431EF21F000010F0E4D6F400E06
:104E90004A6F3A0E4B6F440E4C6F08EC2BF0000A31
:104EA000D8A431EF21F0DCEC2AF000C0BDF0000105
:104EB0000A0EBD5DD8B031EF21F000010D0E4B6F31
:104EC000050E4C6F440E4D6F79C348F07AC349F01C
:104ED0007BC34AF0CCECAEF0000AD8A431EF21F04D
:104EE0000001400E466F3A0E476F440E486F0A0E9F
:104EF000436F000E446F440E456F3BEC03F11A0EF6
:104F0000006E000E016E440E026E0001BD51B2EC47
:104F100001F000011B0E536F000E546F440E556FCD
:104F20000D0E506F050E516F440E526F8EECB0F0A7
:104F3000F9ECABF095EC1FF025EF21F0C90E006EF7
:104F4000050E016E440E026E010EB2EC01F0DDC3DF
:104F5000D6F300017A6B7B51210AD8B46BEF28F0AD
:104F6000020AD8B474EF28F0070AD8B47AEF28F010
:104F7000010AD8B480EF28F0030AD8B486EF28F0ED
:104F8000010AD8B48CEF28F00F0AD8B492EF28F0B9
:104F9000010AD8B431EF28F0190AD8B49BEF28F0F1
:104FA000700AD8B4A4EF28F0100AD8B42CEF28F077
:104FB000010AD8B42CEF28F0030AD8B42CEF28F05B
:104FC000010AD8B42CEF28F0060AD8B4A1EF28F0D3
:104FD000020AD8B49EEF28F0270AD8B468EF28F068
:104FE000010AD8B46EEF28F0030AD8B471EF28F0A4
:104FF000010AD8B477EF28F0070AD8B47DEF28F07B
:10500000010AD8B483EF28F0030AD8B489EF28F056
:10501000010AD8B48FEF28F00E0AD8B498EF28F020
:10502000030AD8B495EF28F0DA0AD8B465EF28F06F
:10503000010A03E0040A2FE08AD00001A10E406FAC
:105040007CEC29F00301C151300F00013F6F9EEC51
:1050500029F039EC1FF07DD07BC062F0ABEC3CF066
:1050600078D079C300F07AC301F07BC302F05CEC26
:1050700001F0310A7C0E006E1D0E016E440E026EB0
:1050800004E1010EB2EC01F003D0000EB2EC01F02D
:1050900095EC1FF05ED079C300F07AC301F07BC3BA
:1050A00002F05CEC01F0310A7B0E006E1D0E016E09
:1050B000440E026E04E1010EB2EC01F003D0000ECA
:1050C000B2EC01F095EC1FF044D06FEC2BF041D026
:1050D000BBEC2CF03ED018EC2DF03BD011EC2EF0B8
:1050E00038D02FEC30F035D041EC30F032D0BAEC83
:1050F00030F02FD09EEC31F02CD064EC32F029D07F
:10510000CCEC30F026D04DEC31F023D0C3EC32F0B3
:1051100020D000EC34F01DD0E3EC34F01AD06FEC6A
:1051200036F017D0CFEC37F014D056EC29F011D070
:1051300057EC38F00ED056EC39F00BD012EC3CF0B6
:1051400008D09DEC41F005D0FFEC38F002D07BC0D8
:105150007AF0C90E006E050E016E440E026E000E4E
:10516000B2EC01F000017A511200DA0E006E030E6B
:10517000016E5EEC01F0046ED89004320450ACEC89
:1051800001F00301280EDA5D04E3B1EC1FF0000E1C
:105190004CD00001270E526F536B400E4F6F3A0EEA
:1051A000506F440E516FB7ECB3F00001576B35D020
:1051B00057C004F0066A056A400E0424546F3A0E84
:1051C0000520556F440E0620566F03017929006EA5
:1051D000000E7A21016E000E7B21026E5CEC01F064
:1051E0000F0B79C300F07AC301F07BC302F0036EAA
:1051F0005CEC01F0006E0038F00B032454C000F0AA
:1052000055C001F056C002F0B2EC01F0020E792751
:10521000000E7A237B230001572B0301DA51000192
:10522000575DC6E395EC1FF0010E120055C040F02B
:105230007CEC29F0A9C300F0AAC301F0D50EF66EEC
:10524000050EF76E440EF86E9DEC01F0005004263A
:1052500001500522000E0622072204C051F005C0AD
:1052600052F006C053F007C054F0E0EC29F0ABC395
:1052700000F0ACC301F0DB0EF66E050EF76E440EC7
:10528000F86E9DEC01F00050042601500522000E3E
:105290000622072204C051F005C052F006C053F0A8
:1052A00007C054F0E0EC29F039EF1FF000017A0E4E
:1052B000406F7CEC29F000010A0E496F000E4A6F26
:1052C000440E4B6F38EC2AF01A0EF66E000EF76E95
:1052D000440EF86E08000001F5CF51F0526BC3EC9C
:1052E00029F000011B0E476F000E486F440E496FF6
:1052F0005EEC2AF039EF1FF00301CC6B0301200EA6
:10530000D85D02E2200ED86FD8C33FF09EEC29F0A2
:10531000200EF66E060EF76E440EF86E9DEC01F050
:105320000450200F00013F6F9EEC29F040C03FF079
:105330009EEC29F000013F6B9EEF29F0CCC304F0F6
:10534000066A056A400E0424006E380E0520016EC0
:10535000440E0620026E00013F51B2EC01F0030141
:10536000CC2B120040C000F000380F0B300F0001B2
:105370003F6F9EEC29F0000140510F0B300F0001F0
:105380003F6F9EEF29F00001506B400E4D6F3A0EBB
:105390004E6F440E4F6F51C000F052C001F000C07C
:1053A00049F001C04AF04B6B4C6B67ECB1F0000167
:1053B000400E496F3A0E4A6F440E4B6F38EF2AF099
:1053C0000001200E506F400E4D6F3A0E4E6F440E8E
:1053D0004F6F51C049F052C04AF053C04BF054C017
:1053E0004CF067ECB1F00001400E496F3A0E4A6F85
:1053F000440E4B6F38EF2AF00001556BD6C354F0C2
:10540000400E516F3A0E526F440E536F56C04EF01D
:1054100057C04FF058C050F0E5ECC4F00001400E0A
:10542000496F3A0E4A6F440E4B6F38EF2AF0000175
:10543000596B1AD059C000F0036A026A016A030E60
:10544000A3EC00F000505A25046E01505B21056E5C
:1054500002505C2104C056F005C057F0E8CF58F068
:10546000FCEC29F00001592B5D51595DE3E312007A
:1054700049C046F04AC047F04BC048F0CCC300F0EA
:10548000026A016A400E0024046E380E0120056E87
:10549000440E022004C043F005C044F00001456FF3
:1054A0003BEC03F149C042F04AC043F04BC044F02A
:1054B0000FEC03F100280301CC2712000001466B1A
:1054C000CCC300F0026A016A400E0024046E380E5C
:1054D0000120056E440E022004C043F005C044F0D4
:1054E000456F47C040F048C041F049C042F032EC3F
:1054F000ADF00301CC270001090E3F6F9EEF29F0AC
:105500000001466BCCC300F0026A016A400E002421
:10551000046E380E0120056E440E022004C043F0D4
:1055200005C044F0456F47C040F048C041F049C055
:1055300042F038ECAEF00301CC270001090E3F6FBA
:105540009EEF29F079C300F07AC301F07BC302F02B
:105550005CEC01F000013F6F03017929006E000E41
:105560007A21016E000E7B21026E5CEC01F00001DD
:10557000406F300E3F5D0DE3400E3F5D0AE2300E9E
:10558000405D07E3400E405D04E20301020EDA5D78
:1055900002E2FF0E10D00301020E7927000E7A23DB
:1055A0007B230301FE0EDA27000140510F0B006E32
:1055B0003F39F00B0024120079C344F07AC345F060
:1055C0007BC346F0BEECFEF000C048F001C049F0DD
:1055D00079C342F07AC343F07BC344F00FEC03F18C
:1055E00000280001476F03017927000E7A237B23EF
:1055F000000147510301DA5D02E2DA6B04D00001D9
:1056000047510301DA5F48C000F049C001F01200C1
:1056100079C342F07AC343F07BC344F00FEC03F14B
:1056200000C049F0000149514D5D02E3495302E1D8
:10563000010E23D0492B79C346F07AC347F07BC3D0
:1056400048F04AC043F04BC044F04CC045F03BEC3E
:1056500003F149C000F0005003017927000E7A23BE
:105660007B23000149510301DA5D02E2DA6B04D0C9
:10567000000149510301DA5F000E120054C04FF0DF
:1056800051C04CF052C04DF053C04EF079C349F0B8
:105690007AC34AF07BC34BF0EBECC5F0000A02E0A2
:1056A000010E1CD079C342F07AC343F07BC344F0AF
:1056B0000FEC03F100280001506F03017927000E61
:1056C0007A237B23000150510301DA5D02E2DA6B99
:1056D00004D0000150510301DA5F000E12000001F6
:1056E000A00E406F7CEC29F00001E50E496F360EEC
:1056F0004A6F440E4B6F38EC2AF00001F50E496FEB
:10570000360E4A6F440E4B6F38EC2AF00001050E3E
:10571000496F370E4A6F440E4B6F38EC2AF0000188
:10572000150E496F370E4A6F440E4B6F38EC2AF056
:105730000001770E496F090E4A6F000E4B6F38EC6F
:105740002AF00001950E476F090E486F000E496F51
:105750005EEC2AF00001980E476F090E486F000EAC
:10576000496F80EC2AF00001400E4C6F3A0E4D6FED
:10577000440E4E6F9C0EF66E000EF76E440EF86EE1
:1057800073EC01F005C001F001380F0B00013F6F11
:10579000ADECB5F04CC000F04DC001F04EC002F0D1
:1057A000B2EC01F00001410E4C6F3A0E4D6F440E09
:1057B0004E6F9C0EF66E000EF76E440EF86E73EC94
:1057C00001F005C001F001500F0B00013F6FADEC7F
:1057D000B5F04CC000F04DC001F04EC002F0B2EC8C
:1057E00001F00001420E4C6F3A0E4D6F440E4E6FA9
:1057F0009C0EF66E000EF76E440EF86E73EC01F020
:1058000004380F0B00013F6FADECB5F04CC000F059
:105810004DC001F04EC002F0B2EC01F00001430EA9
:105820004C6F3A0E4D6F440E4E6F9C0EF66E000E8E
:10583000F76E440EF86E73EC01F004500F0B00018C
:105840003F6FADECB5F04CC000F04DC001F04EC064
:1058500002F0B2EC01F0440E006E3A0E016E440EFE
:10586000026E000EB2EC01F00001400E496F3A0EDC
:105870004A6F440E4B6F38EC2AF00001160E476F4A
:10588000370E486F440E496F5EEC2AF00001190E86
:10589000476F370E486F440E496F80EC2AF039EF9E
:1058A0001FF0A2EC2AF0FF0F0001B66F180EB65DD4
:1058B000D8B0B8EF2CF0B65303E0010EB61935E1BD
:1058C0000301060E7925006E000E7A21016E000E8E
:1058D0007B21026E000EAAEC01F079C3B3F07AC30B
:1058E000B4F07BC3B5F00001B26BE3EC47F0000A03
:1058F0003FE10301070E7925006E000E7A21016E4B
:10590000000E7B2100C0B3F001C0B4F00001B56F00
:10591000010EB26FE3EC47F0000A2AE1E7EC46F033
:10592000000A26E195EC1FF025D079C3B3F07AC3C5
:10593000B4F07BC3B5F0B6C0B2F0E3EC47F0000AB8
:1059400017E195EC1FF00001090EB61913E179C3B8
:1059500044F07AC345F07BC346F0BEECFEF000C0D5
:10596000B6F00001B6C040F0416B7DEC5CF002D0B7
:10597000B1EC1FF01200A2EC2AF0FF0F0001536FF0
:10598000180E535D03E3B1EC1FF051D00001700E0F
:10599000406F7CEC29F0000153290001406FB2EC0C
:1059A00029F00001535303E0010E531925E10001D2
:1059B000FD0E506F020E516F800E526FFAECECF03C
:1059C0000001070E4F6F050E506F440E516F6CECC7
:1059D000ECF00001FD0E476F020E486F800E496F1C
:1059E0005EEC2AF00001070E476F050E486F440E6B
:1059F000496F80EC2AF019D053C000F0036A026AA4
:105A0000016A020EA3EC00F0080E0024F66E060EEA
:105A10000120F76E440E0220F86E9DEC01F004C0E8
:105A200051F005C052F0C3EC29F039EC1FF0120020
:105A3000380EF66E050EF76E440EF86E0800060E70
:105A4000F55C03E3B5EC1FF0EBD0A2EC2AF0FF0FFE
:105A500000016E6F080E6E5DD8B00EEF2EF00301E0
:105A6000C9B7DCD000010C0E4D6F400E4A6F3A0EE4
:105A70004B6F440E4C6F08EC2BF0000AD8A40EEFCD
:105A80002EF06EC04CF036EC20F0000AD8A410EFD7
:105A90002EF079C348F07AC349F07BC34AF0C6ECD4
:105AA000FCF000C069F301C06AF302C06BF303C0ED
:105AB0006CF303016A51070A05E16951D50A02E155
:105AC0006C516B11D8B40EEF2EF069516A116B1145
:105AD0006C11D8B40EEF2EF000016F6B6FC000F0A8
